{
	"contracts/6_BoolExample.sol": {
		"mycontract": {
			"abi": [
				{
					"inputs": [],
					"name": "myBool",
					"outputs": [
						{
							"internalType": "bool",
							"name": "",
							"type": "bool"
						}
					],
					"stateMutability": "view",
					"type": "function"
				},
				{
					"inputs": [],
					"name": "negaBool",
					"outputs": [],
					"stateMutability": "nonpayable",
					"type": "function"
				},
				{
					"inputs": [],
					"name": "retrieve",
					"outputs": [
						{
							"internalType": "bool",
							"name": "",
							"type": "bool"
						}
					],
					"stateMutability": "view",
					"type": "function"
				},
				{
					"inputs": [
						{
							"internalType": "bool",
							"name": "_myBool",
							"type": "bool"
						}
					],
					"name": "setNewBool",
					"outputs": [],
					"stateMutability": "nonpayable",
					"type": "function"
				}
			],
			"devdoc": {
				"kind": "dev",
				"methods": {},
				"version": 1
			},
			"evm": {
				"assembly": "    /* \"contracts/6_BoolExample.sol\":64:351  contract mycontract {\r... */\n  mstore(0x40, 0x80)\n  callvalue\n  dup1\n  iszero\n  tag_1\n  jumpi\n  0x00\n  dup1\n  revert\ntag_1:\n  pop\n  dataSize(sub_0)\n  dup1\n  dataOffset(sub_0)\n  0x00\n  codecopy\n  0x00\n  return\nstop\n\nsub_0: assembly {\n        /* \"contracts/6_BoolExample.sol\":64:351  contract mycontract {\r... */\n      mstore(0x40, 0x80)\n      callvalue\n      dup1\n      iszero\n      tag_1\n      jumpi\n      0x00\n      dup1\n      revert\n    tag_1:\n      pop\n      jumpi(tag_2, lt(calldatasize, 0x04))\n      shr(0xe0, calldataload(0x00))\n      dup1\n      0x222b0b92\n      eq\n      tag_3\n      jumpi\n      dup1\n      0x2e64cec1\n      eq\n      tag_4\n      jumpi\n      dup1\n      0x6deecdbe\n      eq\n      tag_5\n      jumpi\n      dup1\n      0xabbc3b6b\n      eq\n      tag_6\n      jumpi\n    tag_2:\n      0x00\n      dup1\n      revert\n        /* \"contracts/6_BoolExample.sol\":199:262  function negaBool () public {\r... */\n    tag_3:\n      tag_7\n      tag_8\n      jump\t// in\n    tag_7:\n      stop\n        /* \"contracts/6_BoolExample.sol\":268:348  function retrieve () public view returns (bool) {\r... */\n    tag_4:\n      tag_9\n      tag_10\n      jump\t// in\n    tag_9:\n      mload(0x40)\n      tag_11\n      swap2\n      swap1\n      tag_12\n      jump\t// in\n    tag_11:\n      mload(0x40)\n      dup1\n      swap2\n      sub\n      swap1\n      return\n        /* \"contracts/6_BoolExample.sol\":91:109  bool public myBool */\n    tag_5:\n      tag_13\n      tag_14\n      jump\t// in\n    tag_13:\n      mload(0x40)\n      tag_15\n      swap2\n      swap1\n      tag_12\n      jump\t// in\n    tag_15:\n      mload(0x40)\n      dup1\n      swap2\n      sub\n      swap1\n      return\n        /* \"contracts/6_BoolExample.sol\":116:193  function setNewBool (bool _myBool) public {\r... */\n    tag_6:\n      tag_16\n      0x04\n      dup1\n      calldatasize\n      sub\n      dup2\n      add\n      swap1\n      tag_17\n      swap2\n      swap1\n      tag_18\n      jump\t// in\n    tag_17:\n      tag_19\n      jump\t// in\n    tag_16:\n      stop\n        /* \"contracts/6_BoolExample.sol\":199:262  function negaBool () public {\r... */\n    tag_8:\n        /* \"contracts/6_BoolExample.sol\":248:254  myBool */\n      0x00\n      dup1\n      sload\n      swap1\n      0x0100\n      exp\n      swap1\n      div\n      0xff\n      and\n        /* \"contracts/6_BoolExample.sol\":247:254  !myBool */\n      iszero\n        /* \"contracts/6_BoolExample.sol\":238:244  myBool */\n      0x00\n      dup1\n        /* \"contracts/6_BoolExample.sol\":238:254  myBool = !myBool */\n      0x0100\n      exp\n      dup2\n      sload\n      dup2\n      0xff\n      mul\n      not\n      and\n      swap1\n      dup4\n      iszero\n      iszero\n      mul\n      or\n      swap1\n      sstore\n      pop\n        /* \"contracts/6_BoolExample.sol\":199:262  function negaBool () public {\r... */\n      jump\t// out\n        /* \"contracts/6_BoolExample.sol\":268:348  function retrieve () public view returns (bool) {\r... */\n    tag_10:\n        /* \"contracts/6_BoolExample.sol\":310:314  bool */\n      0x00\n        /* \"contracts/6_BoolExample.sol\":334:340  myBool */\n      dup1\n      0x00\n      swap1\n      sload\n      swap1\n      0x0100\n      exp\n      swap1\n      div\n      0xff\n      and\n        /* \"contracts/6_BoolExample.sol\":327:340  return myBool */\n      swap1\n      pop\n        /* \"contracts/6_BoolExample.sol\":268:348  function retrieve () public view returns (bool) {\r... */\n      swap1\n      jump\t// out\n        /* \"contracts/6_BoolExample.sol\":91:109  bool public myBool */\n    tag_14:\n      0x00\n      dup1\n      sload\n      swap1\n      0x0100\n      exp\n      swap1\n      div\n      0xff\n      and\n      dup2\n      jump\t// out\n        /* \"contracts/6_BoolExample.sol\":116:193  function setNewBool (bool _myBool) public {\r... */\n    tag_19:\n        /* \"contracts/6_BoolExample.sol\":178:185  _myBool */\n      dup1\n        /* \"contracts/6_BoolExample.sol\":169:175  myBool */\n      0x00\n      dup1\n        /* \"contracts/6_BoolExample.sol\":169:185  myBool = _myBool */\n      0x0100\n      exp\n      dup2\n      sload\n      dup2\n      0xff\n      mul\n      not\n      and\n      swap1\n      dup4\n      iszero\n      iszero\n      mul\n      or\n      swap1\n      sstore\n      pop\n        /* \"contracts/6_BoolExample.sol\":116:193  function setNewBool (bool _myBool) public {\r... */\n      pop\n      jump\t// out\n        /* \"#utility.yul\":7:140   */\n    tag_24:\n      0x00\n        /* \"#utility.yul\":88:94   */\n      dup2\n        /* \"#utility.yul\":75:95   */\n      calldataload\n        /* \"#utility.yul\":66:95   */\n      swap1\n      pop\n        /* \"#utility.yul\":104:134   */\n      tag_26\n        /* \"#utility.yul\":128:133   */\n      dup2\n        /* \"#utility.yul\":104:134   */\n      tag_27\n      jump\t// in\n    tag_26:\n        /* \"#utility.yul\":56:140   */\n      swap3\n      swap2\n      pop\n      pop\n      jump\t// out\n        /* \"#utility.yul\":146:402   */\n    tag_18:\n      0x00\n        /* \"#utility.yul\":251:253   */\n      0x20\n        /* \"#utility.yul\":239:248   */\n      dup3\n        /* \"#utility.yul\":230:237   */\n      dup5\n        /* \"#utility.yul\":226:249   */\n      sub\n        /* \"#utility.yul\":222:254   */\n      slt\n        /* \"#utility.yul\":219:221   */\n      iszero\n      tag_29\n      jumpi\n        /* \"#utility.yul\":267:268   */\n      0x00\n        /* \"#utility.yul\":264:265   */\n      dup1\n        /* \"#utility.yul\":257:269   */\n      revert\n        /* \"#utility.yul\":219:221   */\n    tag_29:\n        /* \"#utility.yul\":310:311   */\n      0x00\n        /* \"#utility.yul\":335:385   */\n      tag_30\n        /* \"#utility.yul\":377:384   */\n      dup5\n        /* \"#utility.yul\":368:374   */\n      dup3\n        /* \"#utility.yul\":357:366   */\n      dup6\n        /* \"#utility.yul\":353:375   */\n      add\n        /* \"#utility.yul\":335:385   */\n      tag_24\n      jump\t// in\n    tag_30:\n        /* \"#utility.yul\":325:385   */\n      swap2\n      pop\n        /* \"#utility.yul\":281:395   */\n      pop\n        /* \"#utility.yul\":209:402   */\n      swap3\n      swap2\n      pop\n      pop\n      jump\t// out\n        /* \"#utility.yul\":408:517   */\n    tag_31:\n        /* \"#utility.yul\":489:510   */\n      tag_33\n        /* \"#utility.yul\":504:509   */\n      dup2\n        /* \"#utility.yul\":489:510   */\n      tag_34\n      jump\t// in\n    tag_33:\n        /* \"#utility.yul\":484:487   */\n      dup3\n        /* \"#utility.yul\":477:511   */\n      mstore\n        /* \"#utility.yul\":467:517   */\n      pop\n      pop\n      jump\t// out\n        /* \"#utility.yul\":523:733   */\n    tag_12:\n      0x00\n        /* \"#utility.yul\":648:650   */\n      0x20\n        /* \"#utility.yul\":637:646   */\n      dup3\n        /* \"#utility.yul\":633:651   */\n      add\n        /* \"#utility.yul\":625:651   */\n      swap1\n      pop\n        /* \"#utility.yul\":661:726   */\n      tag_36\n        /* \"#utility.yul\":723:724   */\n      0x00\n        /* \"#utility.yul\":712:721   */\n      dup4\n        /* \"#utility.yul\":708:725   */\n      add\n        /* \"#utility.yul\":699:705   */\n      dup5\n        /* \"#utility.yul\":661:726   */\n      tag_31\n      jump\t// in\n    tag_36:\n        /* \"#utility.yul\":615:733   */\n      swap3\n      swap2\n      pop\n      pop\n      jump\t// out\n        /* \"#utility.yul\":739:829   */\n    tag_34:\n      0x00\n        /* \"#utility.yul\":816:821   */\n      dup2\n        /* \"#utility.yul\":809:822   */\n      iszero\n        /* \"#utility.yul\":802:823   */\n      iszero\n        /* \"#utility.yul\":791:823   */\n      swap1\n      pop\n        /* \"#utility.yul\":781:829   */\n      swap2\n      swap1\n      pop\n      jump\t// out\n        /* \"#utility.yul\":835:951   */\n    tag_27:\n        /* \"#utility.yul\":905:926   */\n      tag_39\n        /* \"#utility.yul\":920:925   */\n      dup2\n        /* \"#utility.yul\":905:926   */\n      tag_34\n      jump\t// in\n    tag_39:\n        /* \"#utility.yul\":898:903   */\n      dup2\n        /* \"#utility.yul\":895:927   */\n      eq\n        /* \"#utility.yul\":885:887   */\n      tag_40\n      jumpi\n        /* \"#utility.yul\":941:942   */\n      0x00\n        /* \"#utility.yul\":938:939   */\n      dup1\n        /* \"#utility.yul\":931:943   */\n      revert\n        /* \"#utility.yul\":885:887   */\n    tag_40:\n        /* \"#utility.yul\":875:951   */\n      pop\n      jump\t// out\n\n    auxdata: 0xa2646970667358221220bc2c4d9964b286f281d8f7c509f029a5b3dbc19ed46bff9371e64019bda6b62d64736f6c63430008010033\n}\n",
				"bytecode": {
					"linkReferences": {},
					"object": "608060405234801561001057600080fd5b506101e0806100206000396000f3fe608060405234801561001057600080fd5b506004361061004c5760003560e01c8063222b0b92146100515780632e64cec11461005b5780636deecdbe14610079578063abbc3b6b14610097575b600080fd5b6100596100b3565b005b6100636100dc565b604051610070919061016c565b60405180910390f35b6100816100f2565b60405161008e919061016c565b60405180910390f35b6100b160048036038101906100ac9190610134565b610103565b005b60008054906101000a900460ff16156000806101000a81548160ff021916908315150217905550565b60008060009054906101000a900460ff16905090565b60008054906101000a900460ff1681565b806000806101000a81548160ff02191690831515021790555050565b60008135905061012e81610193565b92915050565b60006020828403121561014657600080fd5b60006101548482850161011f565b91505092915050565b61016681610187565b82525050565b6000602082019050610181600083018461015d565b92915050565b60008115159050919050565b61019c81610187565b81146101a757600080fd5b5056fea2646970667358221220bc2c4d9964b286f281d8f7c509f029a5b3dbc19ed46bff9371e64019bda6b62d64736f6c63430008010033",
					"opcodes": "PUSH1 0x80 PUSH1 0x40 MSTORE CALLVALUE DUP1 ISZERO PUSH2 0x10 JUMPI PUSH1 0x0 DUP1 REVERT JUMPDEST POP PUSH2 0x1E0 DUP1 PUSH2 0x20 PUSH1 0x0 CODECOPY PUSH1 0x0 RETURN INVALID PUSH1 0x80 PUSH1 0x40 MSTORE CALLVALUE DUP1 ISZERO PUSH2 0x10 JUMPI PUSH1 0x0 DUP1 REVERT JUMPDEST POP PUSH1 0x4 CALLDATASIZE LT PUSH2 0x4C JUMPI PUSH1 0x0 CALLDATALOAD PUSH1 0xE0 SHR DUP1 PUSH4 0x222B0B92 EQ PUSH2 0x51 JUMPI DUP1 PUSH4 0x2E64CEC1 EQ PUSH2 0x5B JUMPI DUP1 PUSH4 0x6DEECDBE EQ PUSH2 0x79 JUMPI DUP1 PUSH4 0xABBC3B6B EQ PUSH2 0x97 JUMPI JUMPDEST PUSH1 0x0 DUP1 REVERT JUMPDEST PUSH2 0x59 PUSH2 0xB3 JUMP JUMPDEST STOP JUMPDEST PUSH2 0x63 PUSH2 0xDC JUMP JUMPDEST PUSH1 0x40 MLOAD PUSH2 0x70 SWAP2 SWAP1 PUSH2 0x16C JUMP JUMPDEST PUSH1 0x40 MLOAD DUP1 SWAP2 SUB SWAP1 RETURN JUMPDEST PUSH2 0x81 PUSH2 0xF2 JUMP JUMPDEST PUSH1 0x40 MLOAD PUSH2 0x8E SWAP2 SWAP1 PUSH2 0x16C JUMP JUMPDEST PUSH1 0x40 MLOAD DUP1 SWAP2 SUB SWAP1 RETURN JUMPDEST PUSH2 0xB1 PUSH1 0x4 DUP1 CALLDATASIZE SUB DUP2 ADD SWAP1 PUSH2 0xAC SWAP2 SWAP1 PUSH2 0x134 JUMP JUMPDEST PUSH2 0x103 JUMP JUMPDEST STOP JUMPDEST PUSH1 0x0 DUP1 SLOAD SWAP1 PUSH2 0x100 EXP SWAP1 DIV PUSH1 0xFF AND ISZERO PUSH1 0x0 DUP1 PUSH2 0x100 EXP DUP2 SLOAD DUP2 PUSH1 0xFF MUL NOT AND SWAP1 DUP4 ISZERO ISZERO MUL OR SWAP1 SSTORE POP JUMP JUMPDEST PUSH1 0x0 DUP1 PUSH1 0x0 SWAP1 SLOAD SWAP1 PUSH2 0x100 EXP SWAP1 DIV PUSH1 0xFF AND SWAP1 POP SWAP1 JUMP JUMPDEST PUSH1 0x0 DUP1 SLOAD SWAP1 PUSH2 0x100 EXP SWAP1 DIV PUSH1 0xFF AND DUP2 JUMP JUMPDEST DUP1 PUSH1 0x0 DUP1 PUSH2 0x100 EXP DUP2 SLOAD DUP2 PUSH1 0xFF MUL NOT AND SWAP1 DUP4 ISZERO ISZERO MUL OR SWAP1 SSTORE POP POP JUMP JUMPDEST PUSH1 0x0 DUP2 CALLDATALOAD SWAP1 POP PUSH2 0x12E DUP2 PUSH2 0x193 JUMP JUMPDEST SWAP3 SWAP2 POP POP JUMP JUMPDEST PUSH1 0x0 PUSH1 0x20 DUP3 DUP5 SUB SLT ISZERO PUSH2 0x146 JUMPI PUSH1 0x0 DUP1 REVERT JUMPDEST PUSH1 0x0 PUSH2 0x154 DUP5 DUP3 DUP6 ADD PUSH2 0x11F JUMP JUMPDEST SWAP2 POP POP SWAP3 SWAP2 POP POP JUMP JUMPDEST PUSH2 0x166 DUP2 PUSH2 0x187 JUMP JUMPDEST DUP3 MSTORE POP POP JUMP JUMPDEST PUSH1 0x0 PUSH1 0x20 DUP3 ADD SWAP1 POP PUSH2 0x181 PUSH1 0x0 DUP4 ADD DUP5 PUSH2 0x15D JUMP JUMPDEST SWAP3 SWAP2 POP POP JUMP JUMPDEST PUSH1 0x0 DUP2 ISZERO ISZERO SWAP1 POP SWAP2 SWAP1 POP JUMP JUMPDEST PUSH2 0x19C DUP2 PUSH2 0x187 JUMP JUMPDEST DUP2 EQ PUSH2 0x1A7 JUMPI PUSH1 0x0 DUP1 REVERT JUMPDEST POP JUMP INVALID LOG2 PUSH5 0x6970667358 0x22 SLT KECCAK256 0xBC 0x2C 0x4D SWAP10 PUSH5 0xB286F281D8 0xF7 0xC5 MULMOD CREATE 0x29 0xA5 0xB3 0xDB 0xC1 SWAP15 0xD4 PUSH12 0xFF9371E64019BDA6B62D6473 PUSH16 0x6C634300080100330000000000000000 "
				},
				"gasEstimates": {
					"creation": {
						"codeDepositCost": "96000",
						"executionCost": "141",
						"totalCost": "96141"
					},
					"external": {
						"myBool()": "1190",
						"negaBool()": "21825",
						"retrieve()": "1179",
						"setNewBool(bool)": "21323"
					}
				},
				"methodIdentifiers": {
					"myBool()": "6deecdbe",
					"negaBool()": "222b0b92",
					"retrieve()": "2e64cec1",
					"setNewBool(bool)": "abbc3b6b"
				}
			},
			"storageLayout": {
				"storage": [
					{
						"astId": 3,
						"contract": "contracts/6_BoolExample.sol:mycontract",
						"label": "myBool",
						"offset": 0,
						"slot": "0",
						"type": "t_bool"
					}
				],
				"types": {
					"t_bool": {
						"encoding": "inplace",
						"label": "bool",
						"numberOfBytes": "1"
					}
				}
			},
			"userdoc": {
				"kind": "user",
				"methods": {},
				"version": 1
			}
		}
	}
}