{
	"contracts/9.sendMoneyExample.sol": {
		"myContract": {
			"abi": [
				{
					"constant": true,
					"inputs": [],
					"name": "balanceReceive",
					"outputs": [
						{
							"internalType": "uint256",
							"name": "",
							"type": "uint256"
						}
					],
					"payable": false,
					"stateMutability": "view",
					"type": "function"
				},
				{
					"constant": true,
					"inputs": [],
					"name": "getBalance",
					"outputs": [
						{
							"internalType": "uint256",
							"name": "",
							"type": "uint256"
						}
					],
					"payable": false,
					"stateMutability": "view",
					"type": "function"
				},
				{
					"constant": false,
					"inputs": [],
					"name": "receiveMoney",
					"outputs": [],
					"payable": true,
					"stateMutability": "payable",
					"type": "function"
				},
				{
					"constant": true,
					"inputs": [],
					"name": "sender",
					"outputs": [
						{
							"internalType": "address",
							"name": "",
							"type": "address"
						}
					],
					"payable": false,
					"stateMutability": "view",
					"type": "function"
				},
				{
					"constant": true,
					"inputs": [],
					"name": "time",
					"outputs": [
						{
							"internalType": "uint256",
							"name": "",
							"type": "uint256"
						}
					],
					"payable": false,
					"stateMutability": "view",
					"type": "function"
				}
			],
			"devdoc": {
				"methods": {}
			},
			"evm": {
				"assembly": "    /* \"contracts/9.sendMoneyExample.sol\":65:502  contract myContract {\r... */\n  mstore(0x40, 0x80)\n  callvalue\n    /* \"--CODEGEN--\":8:17   */\n  dup1\n    /* \"--CODEGEN--\":5:7   */\n  iszero\n  tag_1\n  jumpi\n    /* \"--CODEGEN--\":30:31   */\n  0x00\n    /* \"--CODEGEN--\":27:28   */\n  dup1\n    /* \"--CODEGEN--\":20:32   */\n  revert\n    /* \"--CODEGEN--\":5:7   */\ntag_1:\n    /* \"contracts/9.sendMoneyExample.sol\":65:502  contract myContract {\r... */\n  pop\n  dataSize(sub_0)\n  dup1\n  dataOffset(sub_0)\n  0x00\n  codecopy\n  0x00\n  return\nstop\n\nsub_0: assembly {\n        /* \"contracts/9.sendMoneyExample.sol\":65:502  contract myContract {\r... */\n      mstore(0x40, 0x80)\n      jumpi(tag_1, lt(calldatasize, 0x04))\n      shr(0xe0, calldataload(0x00))\n      dup1\n      0x12065fe0\n      eq\n      tag_2\n      jumpi\n      dup1\n      0x16ada547\n      eq\n      tag_3\n      jumpi\n      dup1\n      0x3a8e5ae5\n      eq\n      tag_4\n      jumpi\n      dup1\n      0x67e404ce\n      eq\n      tag_5\n      jumpi\n      dup1\n      0x6d26ec18\n      eq\n      tag_6\n      jumpi\n    tag_1:\n      0x00\n      dup1\n      revert\n        /* \"contracts/9.sendMoneyExample.sol\":237:333  function getBalance () public view returns (uint){\r... */\n    tag_2:\n      callvalue\n        /* \"--CODEGEN--\":8:17   */\n      dup1\n        /* \"--CODEGEN--\":5:7   */\n      iszero\n      tag_7\n      jumpi\n        /* \"--CODEGEN--\":30:31   */\n      0x00\n        /* \"--CODEGEN--\":27:28   */\n      dup1\n        /* \"--CODEGEN--\":20:32   */\n      revert\n        /* \"--CODEGEN--\":5:7   */\n    tag_7:\n        /* \"contracts/9.sendMoneyExample.sol\":237:333  function getBalance () public view returns (uint){\r... */\n      pop\n      tag_8\n      tag_9\n      jump\t// in\n    tag_8:\n      mload(0x40)\n      dup1\n      dup3\n      dup2\n      mstore\n      0x20\n      add\n      swap2\n      pop\n      pop\n      mload(0x40)\n      dup1\n      swap2\n      sub\n      swap1\n      return\n        /* \"contracts/9.sendMoneyExample.sol\":428:499  function time() public view returns (uint){\r... */\n    tag_3:\n      callvalue\n        /* \"--CODEGEN--\":8:17   */\n      dup1\n        /* \"--CODEGEN--\":5:7   */\n      iszero\n      tag_10\n      jumpi\n        /* \"--CODEGEN--\":30:31   */\n      0x00\n        /* \"--CODEGEN--\":27:28   */\n      dup1\n        /* \"--CODEGEN--\":20:32   */\n      revert\n        /* \"--CODEGEN--\":5:7   */\n    tag_10:\n        /* \"contracts/9.sendMoneyExample.sol\":428:499  function time() public view returns (uint){\r... */\n      pop\n      tag_11\n      tag_12\n      jump\t// in\n    tag_11:\n      mload(0x40)\n      dup1\n      dup3\n      dup2\n      mstore\n      0x20\n      add\n      swap2\n      pop\n      pop\n      mload(0x40)\n      dup1\n      swap2\n      sub\n      swap1\n      return\n        /* \"contracts/9.sendMoneyExample.sol\":92:118  uint public balanceReceive */\n    tag_4:\n      callvalue\n        /* \"--CODEGEN--\":8:17   */\n      dup1\n        /* \"--CODEGEN--\":5:7   */\n      iszero\n      tag_13\n      jumpi\n        /* \"--CODEGEN--\":30:31   */\n      0x00\n        /* \"--CODEGEN--\":27:28   */\n      dup1\n        /* \"--CODEGEN--\":20:32   */\n      revert\n        /* \"--CODEGEN--\":5:7   */\n    tag_13:\n        /* \"contracts/9.sendMoneyExample.sol\":92:118  uint public balanceReceive */\n      pop\n      tag_14\n      tag_15\n      jump\t// in\n    tag_14:\n      mload(0x40)\n      dup1\n      dup3\n      dup2\n      mstore\n      0x20\n      add\n      swap2\n      pop\n      pop\n      mload(0x40)\n      dup1\n      swap2\n      sub\n      swap1\n      return\n        /* \"contracts/9.sendMoneyExample.sol\":339:422  function sender() public view returns (address){\r... */\n    tag_5:\n      callvalue\n        /* \"--CODEGEN--\":8:17   */\n      dup1\n        /* \"--CODEGEN--\":5:7   */\n      iszero\n      tag_16\n      jumpi\n        /* \"--CODEGEN--\":30:31   */\n      0x00\n        /* \"--CODEGEN--\":27:28   */\n      dup1\n        /* \"--CODEGEN--\":20:32   */\n      revert\n        /* \"--CODEGEN--\":5:7   */\n    tag_16:\n        /* \"contracts/9.sendMoneyExample.sol\":339:422  function sender() public view returns (address){\r... */\n      pop\n      tag_17\n      tag_18\n      jump\t// in\n    tag_17:\n      mload(0x40)\n      dup1\n      dup3\n      0xffffffffffffffffffffffffffffffffffffffff\n      and\n      0xffffffffffffffffffffffffffffffffffffffff\n      and\n      dup2\n      mstore\n      0x20\n      add\n      swap2\n      pop\n      pop\n      mload(0x40)\n      dup1\n      swap2\n      sub\n      swap1\n      return\n        /* \"contracts/9.sendMoneyExample.sol\":125:231  function receiveMoney () public payable {\r... */\n    tag_6:\n      tag_19\n      tag_20\n      jump\t// in\n    tag_19:\n      stop\n        /* \"contracts/9.sendMoneyExample.sol\":237:333  function getBalance () public view returns (uint){\r... */\n    tag_9:\n        /* \"contracts/9.sendMoneyExample.sol\":281:285  uint */\n      0x00\n        /* \"contracts/9.sendMoneyExample.sol\":312:316  this */\n      address\n        /* \"contracts/9.sendMoneyExample.sol\":304:325  address(this).balance */\n      0xffffffffffffffffffffffffffffffffffffffff\n      and\n      balance\n        /* \"contracts/9.sendMoneyExample.sol\":297:325  return address(this).balance */\n      swap1\n      pop\n        /* \"contracts/9.sendMoneyExample.sol\":237:333  function getBalance () public view returns (uint){\r... */\n      swap1\n      jump\t// out\n        /* \"contracts/9.sendMoneyExample.sol\":428:499  function time() public view returns (uint){\r... */\n    tag_12:\n        /* \"contracts/9.sendMoneyExample.sol\":465:469  uint */\n      0x00\n        /* \"contracts/9.sendMoneyExample.sol\":488:491  now */\n      timestamp\n        /* \"contracts/9.sendMoneyExample.sol\":481:491  return now */\n      swap1\n      pop\n        /* \"contracts/9.sendMoneyExample.sol\":428:499  function time() public view returns (uint){\r... */\n      swap1\n      jump\t// out\n        /* \"contracts/9.sendMoneyExample.sol\":92:118  uint public balanceReceive */\n    tag_15:\n      sload(0x00)\n      dup2\n      jump\t// out\n        /* \"contracts/9.sendMoneyExample.sol\":339:422  function sender() public view returns (address){\r... */\n    tag_18:\n        /* \"contracts/9.sendMoneyExample.sol\":378:385  address */\n      0x00\n        /* \"contracts/9.sendMoneyExample.sol\":404:414  msg.sender */\n      caller\n        /* \"contracts/9.sendMoneyExample.sol\":397:414  return msg.sender */\n      swap1\n      pop\n        /* \"contracts/9.sendMoneyExample.sol\":339:422  function sender() public view returns (address){\r... */\n      swap1\n      jump\t// out\n        /* \"contracts/9.sendMoneyExample.sol\":125:231  function receiveMoney () public payable {\r... */\n    tag_20:\n        /* \"contracts/9.sendMoneyExample.sol\":193:202  msg.value */\n      callvalue\n        /* \"contracts/9.sendMoneyExample.sol\":176:190  balanceReceive */\n      0x00\n        /* \"contracts/9.sendMoneyExample.sol\":176:202  balanceReceive = msg.value */\n      dup2\n      swap1\n      sstore\n      pop\n        /* \"contracts/9.sendMoneyExample.sol\":125:231  function receiveMoney () public payable {\r... */\n      jump\t// out\n\n    auxdata: 0xa265627a7a7231582056598bd59b71ca688d63882fe58d20cde4991e9bf0014d96bd970c03e2775fc764736f6c634300050d0032\n}\n",
				"bytecode": {
					"linkReferences": {},
					"object": "608060405234801561001057600080fd5b506101a4806100206000396000f3fe60806040526004361061004a5760003560e01c806312065fe01461004f57806316ada5471461007a5780633a8e5ae5146100a557806367e404ce146100d05780636d26ec1814610127575b600080fd5b34801561005b57600080fd5b50610064610131565b6040518082815260200191505060405180910390f35b34801561008657600080fd5b5061008f610150565b6040518082815260200191505060405180910390f35b3480156100b157600080fd5b506100ba610158565b6040518082815260200191505060405180910390f35b3480156100dc57600080fd5b506100e561015e565b604051808273ffffffffffffffffffffffffffffffffffffffff1673ffffffffffffffffffffffffffffffffffffffff16815260200191505060405180910390f35b61012f610166565b005b60003073ffffffffffffffffffffffffffffffffffffffff1631905090565b600042905090565b60005481565b600033905090565b3460008190555056fea265627a7a7231582056598bd59b71ca688d63882fe58d20cde4991e9bf0014d96bd970c03e2775fc764736f6c634300050d0032",
					"opcodes": "PUSH1 0x80 PUSH1 0x40 MSTORE CALLVALUE DUP1 ISZERO PUSH2 0x10 JUMPI PUSH1 0x0 DUP1 REVERT JUMPDEST POP PUSH2 0x1A4 DUP1 PUSH2 0x20 PUSH1 0x0 CODECOPY PUSH1 0x0 RETURN INVALID PUSH1 0x80 PUSH1 0x40 MSTORE PUSH1 0x4 CALLDATASIZE LT PUSH2 0x4A JUMPI PUSH1 0x0 CALLDATALOAD PUSH1 0xE0 SHR DUP1 PUSH4 0x12065FE0 EQ PUSH2 0x4F JUMPI DUP1 PUSH4 0x16ADA547 EQ PUSH2 0x7A JUMPI DUP1 PUSH4 0x3A8E5AE5 EQ PUSH2 0xA5 JUMPI DUP1 PUSH4 0x67E404CE EQ PUSH2 0xD0 JUMPI DUP1 PUSH4 0x6D26EC18 EQ PUSH2 0x127 JUMPI JUMPDEST PUSH1 0x0 DUP1 REVERT JUMPDEST CALLVALUE DUP1 ISZERO PUSH2 0x5B JUMPI PUSH1 0x0 DUP1 REVERT JUMPDEST POP PUSH2 0x64 PUSH2 0x131 JUMP JUMPDEST PUSH1 0x40 MLOAD DUP1 DUP3 DUP2 MSTORE PUSH1 0x20 ADD SWAP2 POP POP PUSH1 0x40 MLOAD DUP1 SWAP2 SUB SWAP1 RETURN JUMPDEST CALLVALUE DUP1 ISZERO PUSH2 0x86 JUMPI PUSH1 0x0 DUP1 REVERT JUMPDEST POP PUSH2 0x8F PUSH2 0x150 JUMP JUMPDEST PUSH1 0x40 MLOAD DUP1 DUP3 DUP2 MSTORE PUSH1 0x20 ADD SWAP2 POP POP PUSH1 0x40 MLOAD DUP1 SWAP2 SUB SWAP1 RETURN JUMPDEST CALLVALUE DUP1 ISZERO PUSH2 0xB1 JUMPI PUSH1 0x0 DUP1 REVERT JUMPDEST POP PUSH2 0xBA PUSH2 0x158 JUMP JUMPDEST PUSH1 0x40 MLOAD DUP1 DUP3 DUP2 MSTORE PUSH1 0x20 ADD SWAP2 POP POP PUSH1 0x40 MLOAD DUP1 SWAP2 SUB SWAP1 RETURN JUMPDEST CALLVALUE DUP1 ISZERO PUSH2 0xDC JUMPI PUSH1 0x0 DUP1 REVERT JUMPDEST POP PUSH2 0xE5 PUSH2 0x15E JUMP JUMPDEST PUSH1 0x40 MLOAD DUP1 DUP3 PUSH20 0xFFFFFFFFFFFFFFFFFFFFFFFFFFFFFFFFFFFFFFFF AND PUSH20 0xFFFFFFFFFFFFFFFFFFFFFFFFFFFFFFFFFFFFFFFF AND DUP2 MSTORE PUSH1 0x20 ADD SWAP2 POP POP PUSH1 0x40 MLOAD DUP1 SWAP2 SUB SWAP1 RETURN JUMPDEST PUSH2 0x12F PUSH2 0x166 JUMP JUMPDEST STOP JUMPDEST PUSH1 0x0 ADDRESS PUSH20 0xFFFFFFFFFFFFFFFFFFFFFFFFFFFFFFFFFFFFFFFF AND BALANCE SWAP1 POP SWAP1 JUMP JUMPDEST PUSH1 0x0 TIMESTAMP SWAP1 POP SWAP1 JUMP JUMPDEST PUSH1 0x0 SLOAD DUP2 JUMP JUMPDEST PUSH1 0x0 CALLER SWAP1 POP SWAP1 JUMP JUMPDEST CALLVALUE PUSH1 0x0 DUP2 SWAP1 SSTORE POP JUMP INVALID LOG2 PUSH6 0x627A7A723158 KECCAK256 JUMP MSIZE DUP12 0xD5 SWAP12 PUSH18 0xCA688D63882FE58D20CDE4991E9BF0014D96 0xBD SWAP8 0xC SUB 0xE2 PUSH24 0x5FC764736F6C634300050D00320000000000000000000000 "
				},
				"gasEstimates": {
					"creation": {
						"codeDepositCost": "84000",
						"executionCost": "135",
						"totalCost": "84135"
					},
					"external": {
						"balanceReceive()": "427",
						"getBalance()": "596",
						"receiveMoney()": "20199",
						"sender()": "268",
						"time()": "212"
					}
				},
				"methodIdentifiers": {
					"balanceReceive()": "3a8e5ae5",
					"getBalance()": "12065fe0",
					"receiveMoney()": "6d26ec18",
					"sender()": "67e404ce",
					"time()": "16ada547"
				}
			},
			"storageLayout": {
				"storage": [
					{
						"astId": 3,
						"contract": "contracts/9.sendMoneyExample.sol:myContract",
						"label": "balanceReceive",
						"offset": 0,
						"slot": "0",
						"type": "t_uint256"
					}
				],
				"types": {
					"t_uint256": {
						"encoding": "inplace",
						"label": "uint256",
						"numberOfBytes": "32"
					}
				}
			},
			"userdoc": {
				"methods": {}
			}
		}
	}
}