{
	"contracts/32_Deligatecall.sol": {
		"A": {
			"abi": [
				{
					"inputs": [],
					"name": "num",
					"outputs": [
						{
							"internalType": "uint256",
							"name": "",
							"type": "uint256"
						}
					],
					"stateMutability": "view",
					"type": "function"
				},
				{
					"inputs": [],
					"name": "sender",
					"outputs": [
						{
							"internalType": "address",
							"name": "",
							"type": "address"
						}
					],
					"stateMutability": "view",
					"type": "function"
				},
				{
					"inputs": [
						{
							"internalType": "address",
							"name": "_contract",
							"type": "address"
						},
						{
							"internalType": "uint256",
							"name": "_newNum",
							"type": "uint256"
						}
					],
					"name": "setNewValue",
					"outputs": [],
					"stateMutability": "payable",
					"type": "function"
				},
				{
					"inputs": [],
					"name": "value",
					"outputs": [
						{
							"internalType": "uint256",
							"name": "",
							"type": "uint256"
						}
					],
					"stateMutability": "view",
					"type": "function"
				}
			],
			"devdoc": {
				"kind": "dev",
				"methods": {},
				"version": 1
			},
			"evm": {
				"assembly": "    /* \"contracts/32_Deligatecall.sol\":306:658  contract A {\r... */\n  mstore(0x40, 0x80)\n  callvalue\n  dup1\n  iszero\n  tag_1\n  jumpi\n  0x00\n  dup1\n  revert\ntag_1:\n  pop\n  dataSize(sub_0)\n  dup1\n  dataOffset(sub_0)\n  0x00\n  codecopy\n  0x00\n  return\nstop\n\nsub_0: assembly {\n        /* \"contracts/32_Deligatecall.sol\":306:658  contract A {\r... */\n      mstore(0x40, 0x80)\n      jumpi(tag_1, lt(calldatasize, 0x04))\n      shr(0xe0, calldataload(0x00))\n      dup1\n      0x3fa4f245\n      eq\n      tag_2\n      jumpi\n      dup1\n      0x4e70b1dc\n      eq\n      tag_3\n      jumpi\n      dup1\n      0x67e404ce\n      eq\n      tag_4\n      jumpi\n      dup1\n      0xbacf78b5\n      eq\n      tag_5\n      jumpi\n    tag_1:\n      0x00\n      dup1\n      revert\n        /* \"contracts/32_Deligatecall.sol\":374:391  uint public value */\n    tag_2:\n      callvalue\n      dup1\n      iszero\n      tag_6\n      jumpi\n      0x00\n      dup1\n      revert\n    tag_6:\n      pop\n      tag_7\n      tag_8\n      jump\t// in\n    tag_7:\n      mload(0x40)\n      tag_9\n      swap2\n      swap1\n      tag_10\n      jump\t// in\n    tag_9:\n      mload(0x40)\n      dup1\n      swap2\n      sub\n      swap1\n      return\n        /* \"contracts/32_Deligatecall.sol\":324:339  uint public num */\n    tag_3:\n      callvalue\n      dup1\n      iszero\n      tag_11\n      jumpi\n      0x00\n      dup1\n      revert\n    tag_11:\n      pop\n      tag_12\n      tag_13\n      jump\t// in\n    tag_12:\n      mload(0x40)\n      tag_14\n      swap2\n      swap1\n      tag_10\n      jump\t// in\n    tag_14:\n      mload(0x40)\n      dup1\n      swap2\n      sub\n      swap1\n      return\n        /* \"contracts/32_Deligatecall.sol\":346:367  address public sender */\n    tag_4:\n      callvalue\n      dup1\n      iszero\n      tag_15\n      jumpi\n      0x00\n      dup1\n      revert\n    tag_15:\n      pop\n      tag_16\n      tag_17\n      jump\t// in\n    tag_16:\n      mload(0x40)\n      tag_18\n      swap2\n      swap1\n      tag_19\n      jump\t// in\n    tag_18:\n      mload(0x40)\n      dup1\n      swap2\n      sub\n      swap1\n      return\n        /* \"contracts/32_Deligatecall.sol\":400:655  function setNewValue (address _contract, uint _newNum) public payable {\r... */\n    tag_5:\n      tag_20\n      0x04\n      dup1\n      calldatasize\n      sub\n      dup2\n      add\n      swap1\n      tag_21\n      swap2\n      swap1\n      tag_22\n      jump\t// in\n    tag_21:\n      tag_23\n      jump\t// in\n    tag_20:\n      stop\n        /* \"contracts/32_Deligatecall.sol\":374:391  uint public value */\n    tag_8:\n      sload(0x02)\n      dup2\n      jump\t// out\n        /* \"contracts/32_Deligatecall.sol\":324:339  uint public num */\n    tag_13:\n      sload(0x00)\n      dup2\n      jump\t// out\n        /* \"contracts/32_Deligatecall.sol\":346:367  address public sender */\n    tag_17:\n      0x01\n      0x00\n      swap1\n      sload\n      swap1\n      0x0100\n      exp\n      swap1\n      div\n      0xffffffffffffffffffffffffffffffffffffffff\n      and\n      dup2\n      jump\t// out\n        /* \"contracts/32_Deligatecall.sol\":400:655  function setNewValue (address _contract, uint _newNum) public payable {\r... */\n    tag_23:\n        /* \"contracts/32_Deligatecall.sol\":481:493  bool success */\n      0x00\n        /* \"contracts/32_Deligatecall.sol\":498:507  _contract */\n      dup3\n        /* \"contracts/32_Deligatecall.sol\":498:520  _contract.delegatecall */\n      0xffffffffffffffffffffffffffffffffffffffff\n      and\n        /* \"contracts/32_Deligatecall.sol\":581:588  _newNum */\n      dup3\n        /* \"contracts/32_Deligatecall.sol\":534:589  abi.encodeWithSignature(\"setNewValue(uint256)\",_newNum) */\n      add(0x24, mload(0x40))\n      tag_25\n      swap2\n      swap1\n      tag_10\n      jump\t// in\n    tag_25:\n      mload(0x40)\n      0x20\n      dup2\n      dup4\n      sub\n      sub\n      dup2\n      mstore\n      swap1\n      0x40\n      mstore\n      and(not(0xffffffffffffffffffffffffffffffffffffffffffffffffffffffff), 0x951c407700000000000000000000000000000000000000000000000000000000)\n      0x20\n      dup3\n      add\n      dup1\n      mload\n      0xffffffffffffffffffffffffffffffffffffffffffffffffffffffff\n      dup4\n      dup2\n      dup4\n      and\n      or\n      dup4\n      mstore\n      pop\n      pop\n      pop\n      pop\n        /* \"contracts/32_Deligatecall.sol\":498:599  _contract.delegatecall(\r... */\n      mload(0x40)\n      tag_26\n      swap2\n      swap1\n      tag_27\n      jump\t// in\n    tag_26:\n      0x00\n      mload(0x40)\n      dup1\n      dup4\n      sub\n      dup2\n      dup6\n      gas\n      delegatecall\n      swap2\n      pop\n      pop\n      returndatasize\n      dup1\n      0x00\n      dup2\n      eq\n      tag_30\n      jumpi\n      mload(0x40)\n      swap2\n      pop\n      and(add(returndatasize, 0x3f), not(0x1f))\n      dup3\n      add\n      0x40\n      mstore\n      returndatasize\n      dup3\n      mstore\n      returndatasize\n      0x00\n      0x20\n      dup5\n      add\n      returndatacopy\n      jump(tag_29)\n    tag_30:\n      0x60\n      swap2\n      pop\n    tag_29:\n      pop\n        /* \"contracts/32_Deligatecall.sol\":480:599  (bool success,) = _contract.delegatecall(\r... */\n      pop\n      swap1\n      pop\n        /* \"contracts/32_Deligatecall.sol\":618:625  success */\n      dup1\n        /* \"contracts/32_Deligatecall.sol\":609:647  require (success, \"Trasaction failed\") */\n      tag_31\n      jumpi\n      mload(0x40)\n      0x08c379a000000000000000000000000000000000000000000000000000000000\n      dup2\n      mstore\n      0x04\n      add\n      tag_32\n      swap1\n      tag_33\n      jump\t// in\n    tag_32:\n      mload(0x40)\n      dup1\n      swap2\n      sub\n      swap1\n      revert\n    tag_31:\n        /* \"contracts/32_Deligatecall.sol\":400:655  function setNewValue (address _contract, uint _newNum) public payable {\r... */\n      pop\n      pop\n      pop\n      jump\t// out\n        /* \"#utility.yul\":7:146   */\n    tag_35:\n      0x00\n        /* \"#utility.yul\":91:97   */\n      dup2\n        /* \"#utility.yul\":78:98   */\n      calldataload\n        /* \"#utility.yul\":69:98   */\n      swap1\n      pop\n        /* \"#utility.yul\":107:140   */\n      tag_37\n        /* \"#utility.yul\":134:139   */\n      dup2\n        /* \"#utility.yul\":107:140   */\n      tag_38\n      jump\t// in\n    tag_37:\n        /* \"#utility.yul\":59:146   */\n      swap3\n      swap2\n      pop\n      pop\n      jump\t// out\n        /* \"#utility.yul\":152:291   */\n    tag_39:\n      0x00\n        /* \"#utility.yul\":236:242   */\n      dup2\n        /* \"#utility.yul\":223:243   */\n      calldataload\n        /* \"#utility.yul\":214:243   */\n      swap1\n      pop\n        /* \"#utility.yul\":252:285   */\n      tag_41\n        /* \"#utility.yul\":279:284   */\n      dup2\n        /* \"#utility.yul\":252:285   */\n      tag_42\n      jump\t// in\n    tag_41:\n        /* \"#utility.yul\":204:291   */\n      swap3\n      swap2\n      pop\n      pop\n      jump\t// out\n        /* \"#utility.yul\":297:704   */\n    tag_22:\n      0x00\n      dup1\n        /* \"#utility.yul\":422:424   */\n      0x40\n        /* \"#utility.yul\":410:419   */\n      dup4\n        /* \"#utility.yul\":401:408   */\n      dup6\n        /* \"#utility.yul\":397:420   */\n      sub\n        /* \"#utility.yul\":393:425   */\n      slt\n        /* \"#utility.yul\":390:392   */\n      iszero\n      tag_44\n      jumpi\n        /* \"#utility.yul\":438:439   */\n      0x00\n        /* \"#utility.yul\":435:436   */\n      dup1\n        /* \"#utility.yul\":428:440   */\n      revert\n        /* \"#utility.yul\":390:392   */\n    tag_44:\n        /* \"#utility.yul\":481:482   */\n      0x00\n        /* \"#utility.yul\":506:559   */\n      tag_45\n        /* \"#utility.yul\":551:558   */\n      dup6\n        /* \"#utility.yul\":542:548   */\n      dup3\n        /* \"#utility.yul\":531:540   */\n      dup7\n        /* \"#utility.yul\":527:549   */\n      add\n        /* \"#utility.yul\":506:559   */\n      tag_35\n      jump\t// in\n    tag_45:\n        /* \"#utility.yul\":496:559   */\n      swap3\n      pop\n        /* \"#utility.yul\":452:569   */\n      pop\n        /* \"#utility.yul\":608:610   */\n      0x20\n        /* \"#utility.yul\":634:687   */\n      tag_46\n        /* \"#utility.yul\":679:686   */\n      dup6\n        /* \"#utility.yul\":670:676   */\n      dup3\n        /* \"#utility.yul\":659:668   */\n      dup7\n        /* \"#utility.yul\":655:677   */\n      add\n        /* \"#utility.yul\":634:687   */\n      tag_39\n      jump\t// in\n    tag_46:\n        /* \"#utility.yul\":624:687   */\n      swap2\n      pop\n        /* \"#utility.yul\":579:697   */\n      pop\n        /* \"#utility.yul\":380:704   */\n      swap3\n      pop\n      swap3\n      swap1\n      pop\n      jump\t// out\n        /* \"#utility.yul\":710:828   */\n    tag_47:\n        /* \"#utility.yul\":797:821   */\n      tag_49\n        /* \"#utility.yul\":815:820   */\n      dup2\n        /* \"#utility.yul\":797:821   */\n      tag_50\n      jump\t// in\n    tag_49:\n        /* \"#utility.yul\":792:795   */\n      dup3\n        /* \"#utility.yul\":785:822   */\n      mstore\n        /* \"#utility.yul\":775:828   */\n      pop\n      pop\n      jump\t// out\n        /* \"#utility.yul\":834:1207   */\n    tag_51:\n      0x00\n        /* \"#utility.yul\":966:1004   */\n      tag_53\n        /* \"#utility.yul\":998:1003   */\n      dup3\n        /* \"#utility.yul\":966:1004   */\n      tag_54\n      jump\t// in\n    tag_53:\n        /* \"#utility.yul\":1020:1108   */\n      tag_55\n        /* \"#utility.yul\":1101:1107   */\n      dup2\n        /* \"#utility.yul\":1096:1099   */\n      dup6\n        /* \"#utility.yul\":1020:1108   */\n      tag_56\n      jump\t// in\n    tag_55:\n        /* \"#utility.yul\":1013:1108   */\n      swap4\n      pop\n        /* \"#utility.yul\":1117:1169   */\n      tag_57\n        /* \"#utility.yul\":1162:1168   */\n      dup2\n        /* \"#utility.yul\":1157:1160   */\n      dup6\n        /* \"#utility.yul\":1150:1154   */\n      0x20\n        /* \"#utility.yul\":1143:1148   */\n      dup7\n        /* \"#utility.yul\":1139:1155   */\n      add\n        /* \"#utility.yul\":1117:1169   */\n      tag_58\n      jump\t// in\n    tag_57:\n        /* \"#utility.yul\":1194:1200   */\n      dup1\n        /* \"#utility.yul\":1189:1192   */\n      dup5\n        /* \"#utility.yul\":1185:1201   */\n      add\n        /* \"#utility.yul\":1178:1201   */\n      swap2\n      pop\n        /* \"#utility.yul\":942:1207   */\n      pop\n      swap3\n      swap2\n      pop\n      pop\n      jump\t// out\n        /* \"#utility.yul\":1213:1528   */\n    tag_59:\n      0x00\n        /* \"#utility.yul\":1376:1443   */\n      tag_61\n        /* \"#utility.yul\":1440:1442   */\n      0x11\n        /* \"#utility.yul\":1435:1438   */\n      dup4\n        /* \"#utility.yul\":1376:1443   */\n      tag_62\n      jump\t// in\n    tag_61:\n        /* \"#utility.yul\":1369:1443   */\n      swap2\n      pop\n        /* \"#utility.yul\":1473:1492   */\n      0x54726173616374696f6e206661696c6564000000000000000000000000000000\n        /* \"#utility.yul\":1469:1470   */\n      0x00\n        /* \"#utility.yul\":1464:1467   */\n      dup4\n        /* \"#utility.yul\":1460:1471   */\n      add\n        /* \"#utility.yul\":1453:1493   */\n      mstore\n        /* \"#utility.yul\":1519:1521   */\n      0x20\n        /* \"#utility.yul\":1514:1517   */\n      dup3\n        /* \"#utility.yul\":1510:1522   */\n      add\n        /* \"#utility.yul\":1503:1522   */\n      swap1\n      pop\n        /* \"#utility.yul\":1359:1528   */\n      swap2\n      swap1\n      pop\n      jump\t// out\n        /* \"#utility.yul\":1534:1652   */\n    tag_63:\n        /* \"#utility.yul\":1621:1645   */\n      tag_65\n        /* \"#utility.yul\":1639:1644   */\n      dup2\n        /* \"#utility.yul\":1621:1645   */\n      tag_66\n      jump\t// in\n    tag_65:\n        /* \"#utility.yul\":1616:1619   */\n      dup3\n        /* \"#utility.yul\":1609:1646   */\n      mstore\n        /* \"#utility.yul\":1599:1652   */\n      pop\n      pop\n      jump\t// out\n        /* \"#utility.yul\":1658:1929   */\n    tag_27:\n      0x00\n        /* \"#utility.yul\":1810:1903   */\n      tag_68\n        /* \"#utility.yul\":1899:1902   */\n      dup3\n        /* \"#utility.yul\":1890:1896   */\n      dup5\n        /* \"#utility.yul\":1810:1903   */\n      tag_51\n      jump\t// in\n    tag_68:\n        /* \"#utility.yul\":1803:1903   */\n      swap2\n      pop\n        /* \"#utility.yul\":1920:1923   */\n      dup2\n        /* \"#utility.yul\":1913:1923   */\n      swap1\n      pop\n        /* \"#utility.yul\":1792:1929   */\n      swap3\n      swap2\n      pop\n      pop\n      jump\t// out\n        /* \"#utility.yul\":1935:2157   */\n    tag_19:\n      0x00\n        /* \"#utility.yul\":2066:2068   */\n      0x20\n        /* \"#utility.yul\":2055:2064   */\n      dup3\n        /* \"#utility.yul\":2051:2069   */\n      add\n        /* \"#utility.yul\":2043:2069   */\n      swap1\n      pop\n        /* \"#utility.yul\":2079:2150   */\n      tag_70\n        /* \"#utility.yul\":2147:2148   */\n      0x00\n        /* \"#utility.yul\":2136:2145   */\n      dup4\n        /* \"#utility.yul\":2132:2149   */\n      add\n        /* \"#utility.yul\":2123:2129   */\n      dup5\n        /* \"#utility.yul\":2079:2150   */\n      tag_47\n      jump\t// in\n    tag_70:\n        /* \"#utility.yul\":2033:2157   */\n      swap3\n      swap2\n      pop\n      pop\n      jump\t// out\n        /* \"#utility.yul\":2163:2582   */\n    tag_33:\n      0x00\n        /* \"#utility.yul\":2367:2369   */\n      0x20\n        /* \"#utility.yul\":2356:2365   */\n      dup3\n        /* \"#utility.yul\":2352:2370   */\n      add\n        /* \"#utility.yul\":2344:2370   */\n      swap1\n      pop\n        /* \"#utility.yul\":2416:2425   */\n      dup2\n        /* \"#utility.yul\":2410:2414   */\n      dup2\n        /* \"#utility.yul\":2406:2426   */\n      sub\n        /* \"#utility.yul\":2402:2403   */\n      0x00\n        /* \"#utility.yul\":2391:2400   */\n      dup4\n        /* \"#utility.yul\":2387:2404   */\n      add\n        /* \"#utility.yul\":2380:2427   */\n      mstore\n        /* \"#utility.yul\":2444:2575   */\n      tag_72\n        /* \"#utility.yul\":2570:2574   */\n      dup2\n        /* \"#utility.yul\":2444:2575   */\n      tag_59\n      jump\t// in\n    tag_72:\n        /* \"#utility.yul\":2436:2575   */\n      swap1\n      pop\n        /* \"#utility.yul\":2334:2582   */\n      swap2\n      swap1\n      pop\n      jump\t// out\n        /* \"#utility.yul\":2588:2810   */\n    tag_10:\n      0x00\n        /* \"#utility.yul\":2719:2721   */\n      0x20\n        /* \"#utility.yul\":2708:2717   */\n      dup3\n        /* \"#utility.yul\":2704:2722   */\n      add\n        /* \"#utility.yul\":2696:2722   */\n      swap1\n      pop\n        /* \"#utility.yul\":2732:2803   */\n      tag_74\n        /* \"#utility.yul\":2800:2801   */\n      0x00\n        /* \"#utility.yul\":2789:2798   */\n      dup4\n        /* \"#utility.yul\":2785:2802   */\n      add\n        /* \"#utility.yul\":2776:2782   */\n      dup5\n        /* \"#utility.yul\":2732:2803   */\n      tag_63\n      jump\t// in\n    tag_74:\n        /* \"#utility.yul\":2686:2810   */\n      swap3\n      swap2\n      pop\n      pop\n      jump\t// out\n        /* \"#utility.yul\":2816:2914   */\n    tag_54:\n      0x00\n        /* \"#utility.yul\":2901:2906   */\n      dup2\n        /* \"#utility.yul\":2895:2907   */\n      mload\n        /* \"#utility.yul\":2885:2907   */\n      swap1\n      pop\n        /* \"#utility.yul\":2874:2914   */\n      swap2\n      swap1\n      pop\n      jump\t// out\n        /* \"#utility.yul\":2920:3067   */\n    tag_56:\n      0x00\n        /* \"#utility.yul\":3058:3061   */\n      dup2\n        /* \"#utility.yul\":3043:3061   */\n      swap1\n      pop\n        /* \"#utility.yul\":3033:3067   */\n      swap3\n      swap2\n      pop\n      pop\n      jump\t// out\n        /* \"#utility.yul\":3073:3242   */\n    tag_62:\n      0x00\n        /* \"#utility.yul\":3191:3197   */\n      dup3\n        /* \"#utility.yul\":3186:3189   */\n      dup3\n        /* \"#utility.yul\":3179:3198   */\n      mstore\n        /* \"#utility.yul\":3231:3235   */\n      0x20\n        /* \"#utility.yul\":3226:3229   */\n      dup3\n        /* \"#utility.yul\":3222:3236   */\n      add\n        /* \"#utility.yul\":3207:3236   */\n      swap1\n      pop\n        /* \"#utility.yul\":3169:3242   */\n      swap3\n      swap2\n      pop\n      pop\n      jump\t// out\n        /* \"#utility.yul\":3248:3344   */\n    tag_50:\n      0x00\n        /* \"#utility.yul\":3314:3338   */\n      tag_79\n        /* \"#utility.yul\":3332:3337   */\n      dup3\n        /* \"#utility.yul\":3314:3338   */\n      tag_80\n      jump\t// in\n    tag_79:\n        /* \"#utility.yul\":3303:3338   */\n      swap1\n      pop\n        /* \"#utility.yul\":3293:3344   */\n      swap2\n      swap1\n      pop\n      jump\t// out\n        /* \"#utility.yul\":3350:3476   */\n    tag_80:\n      0x00\n        /* \"#utility.yul\":3427:3469   */\n      0xffffffffffffffffffffffffffffffffffffffff\n        /* \"#utility.yul\":3420:3425   */\n      dup3\n        /* \"#utility.yul\":3416:3470   */\n      and\n        /* \"#utility.yul\":3405:3470   */\n      swap1\n      pop\n        /* \"#utility.yul\":3395:3476   */\n      swap2\n      swap1\n      pop\n      jump\t// out\n        /* \"#utility.yul\":3482:3559   */\n    tag_66:\n      0x00\n        /* \"#utility.yul\":3548:3553   */\n      dup2\n        /* \"#utility.yul\":3537:3553   */\n      swap1\n      pop\n        /* \"#utility.yul\":3527:3559   */\n      swap2\n      swap1\n      pop\n      jump\t// out\n        /* \"#utility.yul\":3565:3872   */\n    tag_58:\n        /* \"#utility.yul\":3633:3634   */\n      0x00\n        /* \"#utility.yul\":3643:3756   */\n    tag_84:\n        /* \"#utility.yul\":3657:3663   */\n      dup4\n        /* \"#utility.yul\":3654:3655   */\n      dup2\n        /* \"#utility.yul\":3651:3664   */\n      lt\n        /* \"#utility.yul\":3643:3756   */\n      iszero\n      tag_86\n      jumpi\n        /* \"#utility.yul\":3742:3743   */\n      dup1\n        /* \"#utility.yul\":3737:3740   */\n      dup3\n        /* \"#utility.yul\":3733:3744   */\n      add\n        /* \"#utility.yul\":3727:3745   */\n      mload\n        /* \"#utility.yul\":3723:3724   */\n      dup2\n        /* \"#utility.yul\":3718:3721   */\n      dup5\n        /* \"#utility.yul\":3714:3725   */\n      add\n        /* \"#utility.yul\":3707:3746   */\n      mstore\n        /* \"#utility.yul\":3679:3681   */\n      0x20\n        /* \"#utility.yul\":3676:3677   */\n      dup2\n        /* \"#utility.yul\":3672:3682   */\n      add\n        /* \"#utility.yul\":3667:3682   */\n      swap1\n      pop\n        /* \"#utility.yul\":3643:3756   */\n      jump(tag_84)\n    tag_86:\n        /* \"#utility.yul\":3774:3780   */\n      dup4\n        /* \"#utility.yul\":3771:3772   */\n      dup2\n        /* \"#utility.yul\":3768:3781   */\n      gt\n        /* \"#utility.yul\":3765:3767   */\n      iszero\n      tag_87\n      jumpi\n        /* \"#utility.yul\":3854:3855   */\n      0x00\n        /* \"#utility.yul\":3845:3851   */\n      dup5\n        /* \"#utility.yul\":3840:3843   */\n      dup5\n        /* \"#utility.yul\":3836:3852   */\n      add\n        /* \"#utility.yul\":3829:3856   */\n      mstore\n        /* \"#utility.yul\":3765:3767   */\n    tag_87:\n        /* \"#utility.yul\":3614:3872   */\n      pop\n      pop\n      pop\n      pop\n      jump\t// out\n        /* \"#utility.yul\":3878:4000   */\n    tag_38:\n        /* \"#utility.yul\":3951:3975   */\n      tag_89\n        /* \"#utility.yul\":3969:3974   */\n      dup2\n        /* \"#utility.yul\":3951:3975   */\n      tag_50\n      jump\t// in\n    tag_89:\n        /* \"#utility.yul\":3944:3949   */\n      dup2\n        /* \"#utility.yul\":3941:3976   */\n      eq\n        /* \"#utility.yul\":3931:3933   */\n      tag_90\n      jumpi\n        /* \"#utility.yul\":3990:3991   */\n      0x00\n        /* \"#utility.yul\":3987:3988   */\n      dup1\n        /* \"#utility.yul\":3980:3992   */\n      revert\n        /* \"#utility.yul\":3931:3933   */\n    tag_90:\n        /* \"#utility.yul\":3921:4000   */\n      pop\n      jump\t// out\n        /* \"#utility.yul\":4006:4128   */\n    tag_42:\n        /* \"#utility.yul\":4079:4103   */\n      tag_92\n        /* \"#utility.yul\":4097:4102   */\n      dup2\n        /* \"#utility.yul\":4079:4103   */\n      tag_66\n      jump\t// in\n    tag_92:\n        /* \"#utility.yul\":4072:4077   */\n      dup2\n        /* \"#utility.yul\":4069:4104   */\n      eq\n        /* \"#utility.yul\":4059:4061   */\n      tag_93\n      jumpi\n        /* \"#utility.yul\":4118:4119   */\n      0x00\n        /* \"#utility.yul\":4115:4116   */\n      dup1\n        /* \"#utility.yul\":4108:4120   */\n      revert\n        /* \"#utility.yul\":4059:4061   */\n    tag_93:\n        /* \"#utility.yul\":4049:4128   */\n      pop\n      jump\t// out\n\n    auxdata: 0xa2646970667358221220ab8a248b6bb50e8e9f5f95d6356fb4b1e9239cc968c0536be86a9ce440cb6f2f64736f6c63430008000033\n}\n",
				"bytecode": {
					"linkReferences": {},
					"object": "608060405234801561001057600080fd5b506104ac806100206000396000f3fe60806040526004361061003f5760003560e01c80633fa4f245146100445780634e70b1dc1461006f57806367e404ce1461009a578063bacf78b5146100c5575b600080fd5b34801561005057600080fd5b506100596100e1565b6040516100669190610397565b60405180910390f35b34801561007b57600080fd5b506100846100e7565b6040516100919190610397565b60405180910390f35b3480156100a657600080fd5b506100af6100ed565b6040516100bc919061035c565b60405180910390f35b6100df60048036038101906100da919061027a565b610113565b005b60025481565b60005481565b600160009054906101000a900473ffffffffffffffffffffffffffffffffffffffff1681565b60008273ffffffffffffffffffffffffffffffffffffffff168260405160240161013d9190610397565b6040516020818303038152906040527f951c4077000000000000000000000000000000000000000000000000000000007bffffffffffffffffffffffffffffffffffffffffffffffffffffffff19166020820180517bffffffffffffffffffffffffffffffffffffffffffffffffffffffff83818316178352505050506040516101c79190610345565b600060405180830381855af49150503d8060008114610202576040519150601f19603f3d011682016040523d82523d6000602084013e610207565b606091505b505090508061024b576040517f08c379a000000000000000000000000000000000000000000000000000000000815260040161024290610377565b60405180910390fd5b505050565b60008135905061025f81610448565b92915050565b6000813590506102748161045f565b92915050565b6000806040838503121561028d57600080fd5b600061029b85828601610250565b92505060206102ac85828601610265565b9150509250929050565b6102bf816103d9565b82525050565b60006102d0826103b2565b6102da81856103bd565b93506102ea818560208601610415565b80840191505092915050565b60006103036011836103c8565b91507f54726173616374696f6e206661696c65640000000000000000000000000000006000830152602082019050919050565b61033f8161040b565b82525050565b600061035182846102c5565b915081905092915050565b600060208201905061037160008301846102b6565b92915050565b60006020820190508181036000830152610390816102f6565b9050919050565b60006020820190506103ac6000830184610336565b92915050565b600081519050919050565b600081905092915050565b600082825260208201905092915050565b60006103e4826103eb565b9050919050565b600073ffffffffffffffffffffffffffffffffffffffff82169050919050565b6000819050919050565b60005b83811015610433578082015181840152602081019050610418565b83811115610442576000848401525b50505050565b610451816103d9565b811461045c57600080fd5b50565b6104688161040b565b811461047357600080fd5b5056fea2646970667358221220ab8a248b6bb50e8e9f5f95d6356fb4b1e9239cc968c0536be86a9ce440cb6f2f64736f6c63430008000033",
					"opcodes": "PUSH1 0x80 PUSH1 0x40 MSTORE CALLVALUE DUP1 ISZERO PUSH2 0x10 JUMPI PUSH1 0x0 DUP1 REVERT JUMPDEST POP PUSH2 0x4AC DUP1 PUSH2 0x20 PUSH1 0x0 CODECOPY PUSH1 0x0 RETURN INVALID PUSH1 0x80 PUSH1 0x40 MSTORE PUSH1 0x4 CALLDATASIZE LT PUSH2 0x3F JUMPI PUSH1 0x0 CALLDATALOAD PUSH1 0xE0 SHR DUP1 PUSH4 0x3FA4F245 EQ PUSH2 0x44 JUMPI DUP1 PUSH4 0x4E70B1DC EQ PUSH2 0x6F JUMPI DUP1 PUSH4 0x67E404CE EQ PUSH2 0x9A JUMPI DUP1 PUSH4 0xBACF78B5 EQ PUSH2 0xC5 JUMPI JUMPDEST PUSH1 0x0 DUP1 REVERT JUMPDEST CALLVALUE DUP1 ISZERO PUSH2 0x50 JUMPI PUSH1 0x0 DUP1 REVERT JUMPDEST POP PUSH2 0x59 PUSH2 0xE1 JUMP JUMPDEST PUSH1 0x40 MLOAD PUSH2 0x66 SWAP2 SWAP1 PUSH2 0x397 JUMP JUMPDEST PUSH1 0x40 MLOAD DUP1 SWAP2 SUB SWAP1 RETURN JUMPDEST CALLVALUE DUP1 ISZERO PUSH2 0x7B JUMPI PUSH1 0x0 DUP1 REVERT JUMPDEST POP PUSH2 0x84 PUSH2 0xE7 JUMP JUMPDEST PUSH1 0x40 MLOAD PUSH2 0x91 SWAP2 SWAP1 PUSH2 0x397 JUMP JUMPDEST PUSH1 0x40 MLOAD DUP1 SWAP2 SUB SWAP1 RETURN JUMPDEST CALLVALUE DUP1 ISZERO PUSH2 0xA6 JUMPI PUSH1 0x0 DUP1 REVERT JUMPDEST POP PUSH2 0xAF PUSH2 0xED JUMP JUMPDEST PUSH1 0x40 MLOAD PUSH2 0xBC SWAP2 SWAP1 PUSH2 0x35C JUMP JUMPDEST PUSH1 0x40 MLOAD DUP1 SWAP2 SUB SWAP1 RETURN JUMPDEST PUSH2 0xDF PUSH1 0x4 DUP1 CALLDATASIZE SUB DUP2 ADD SWAP1 PUSH2 0xDA SWAP2 SWAP1 PUSH2 0x27A JUMP JUMPDEST PUSH2 0x113 JUMP JUMPDEST STOP JUMPDEST PUSH1 0x2 SLOAD DUP2 JUMP JUMPDEST PUSH1 0x0 SLOAD DUP2 JUMP JUMPDEST PUSH1 0x1 PUSH1 0x0 SWAP1 SLOAD SWAP1 PUSH2 0x100 EXP SWAP1 DIV PUSH20 0xFFFFFFFFFFFFFFFFFFFFFFFFFFFFFFFFFFFFFFFF AND DUP2 JUMP JUMPDEST PUSH1 0x0 DUP3 PUSH20 0xFFFFFFFFFFFFFFFFFFFFFFFFFFFFFFFFFFFFFFFF AND DUP3 PUSH1 0x40 MLOAD PUSH1 0x24 ADD PUSH2 0x13D SWAP2 SWAP1 PUSH2 0x397 JUMP JUMPDEST PUSH1 0x40 MLOAD PUSH1 0x20 DUP2 DUP4 SUB SUB DUP2 MSTORE SWAP1 PUSH1 0x40 MSTORE PUSH32 0x951C407700000000000000000000000000000000000000000000000000000000 PUSH28 0xFFFFFFFFFFFFFFFFFFFFFFFFFFFFFFFFFFFFFFFFFFFFFFFFFFFFFFFF NOT AND PUSH1 0x20 DUP3 ADD DUP1 MLOAD PUSH28 0xFFFFFFFFFFFFFFFFFFFFFFFFFFFFFFFFFFFFFFFFFFFFFFFFFFFFFFFF DUP4 DUP2 DUP4 AND OR DUP4 MSTORE POP POP POP POP PUSH1 0x40 MLOAD PUSH2 0x1C7 SWAP2 SWAP1 PUSH2 0x345 JUMP JUMPDEST PUSH1 0x0 PUSH1 0x40 MLOAD DUP1 DUP4 SUB DUP2 DUP6 GAS DELEGATECALL SWAP2 POP POP RETURNDATASIZE DUP1 PUSH1 0x0 DUP2 EQ PUSH2 0x202 JUMPI PUSH1 0x40 MLOAD SWAP2 POP PUSH1 0x1F NOT PUSH1 0x3F RETURNDATASIZE ADD AND DUP3 ADD PUSH1 0x40 MSTORE RETURNDATASIZE DUP3 MSTORE RETURNDATASIZE PUSH1 0x0 PUSH1 0x20 DUP5 ADD RETURNDATACOPY PUSH2 0x207 JUMP JUMPDEST PUSH1 0x60 SWAP2 POP JUMPDEST POP POP SWAP1 POP DUP1 PUSH2 0x24B JUMPI PUSH1 0x40 MLOAD PUSH32 0x8C379A000000000000000000000000000000000000000000000000000000000 DUP2 MSTORE PUSH1 0x4 ADD PUSH2 0x242 SWAP1 PUSH2 0x377 JUMP JUMPDEST PUSH1 0x40 MLOAD DUP1 SWAP2 SUB SWAP1 REVERT JUMPDEST POP POP POP JUMP JUMPDEST PUSH1 0x0 DUP2 CALLDATALOAD SWAP1 POP PUSH2 0x25F DUP2 PUSH2 0x448 JUMP JUMPDEST SWAP3 SWAP2 POP POP JUMP JUMPDEST PUSH1 0x0 DUP2 CALLDATALOAD SWAP1 POP PUSH2 0x274 DUP2 PUSH2 0x45F JUMP JUMPDEST SWAP3 SWAP2 POP POP JUMP JUMPDEST PUSH1 0x0 DUP1 PUSH1 0x40 DUP4 DUP6 SUB SLT ISZERO PUSH2 0x28D JUMPI PUSH1 0x0 DUP1 REVERT JUMPDEST PUSH1 0x0 PUSH2 0x29B DUP6 DUP3 DUP7 ADD PUSH2 0x250 JUMP JUMPDEST SWAP3 POP POP PUSH1 0x20 PUSH2 0x2AC DUP6 DUP3 DUP7 ADD PUSH2 0x265 JUMP JUMPDEST SWAP2 POP POP SWAP3 POP SWAP3 SWAP1 POP JUMP JUMPDEST PUSH2 0x2BF DUP2 PUSH2 0x3D9 JUMP JUMPDEST DUP3 MSTORE POP POP JUMP JUMPDEST PUSH1 0x0 PUSH2 0x2D0 DUP3 PUSH2 0x3B2 JUMP JUMPDEST PUSH2 0x2DA DUP2 DUP6 PUSH2 0x3BD JUMP JUMPDEST SWAP4 POP PUSH2 0x2EA DUP2 DUP6 PUSH1 0x20 DUP7 ADD PUSH2 0x415 JUMP JUMPDEST DUP1 DUP5 ADD SWAP2 POP POP SWAP3 SWAP2 POP POP JUMP JUMPDEST PUSH1 0x0 PUSH2 0x303 PUSH1 0x11 DUP4 PUSH2 0x3C8 JUMP JUMPDEST SWAP2 POP PUSH32 0x54726173616374696F6E206661696C6564000000000000000000000000000000 PUSH1 0x0 DUP4 ADD MSTORE PUSH1 0x20 DUP3 ADD SWAP1 POP SWAP2 SWAP1 POP JUMP JUMPDEST PUSH2 0x33F DUP2 PUSH2 0x40B JUMP JUMPDEST DUP3 MSTORE POP POP JUMP JUMPDEST PUSH1 0x0 PUSH2 0x351 DUP3 DUP5 PUSH2 0x2C5 JUMP JUMPDEST SWAP2 POP DUP2 SWAP1 POP SWAP3 SWAP2 POP POP JUMP JUMPDEST PUSH1 0x0 PUSH1 0x20 DUP3 ADD SWAP1 POP PUSH2 0x371 PUSH1 0x0 DUP4 ADD DUP5 PUSH2 0x2B6 JUMP JUMPDEST SWAP3 SWAP2 POP POP JUMP JUMPDEST PUSH1 0x0 PUSH1 0x20 DUP3 ADD SWAP1 POP DUP2 DUP2 SUB PUSH1 0x0 DUP4 ADD MSTORE PUSH2 0x390 DUP2 PUSH2 0x2F6 JUMP JUMPDEST SWAP1 POP SWAP2 SWAP1 POP JUMP JUMPDEST PUSH1 0x0 PUSH1 0x20 DUP3 ADD SWAP1 POP PUSH2 0x3AC PUSH1 0x0 DUP4 ADD DUP5 PUSH2 0x336 JUMP JUMPDEST SWAP3 SWAP2 POP POP JUMP JUMPDEST PUSH1 0x0 DUP2 MLOAD SWAP1 POP SWAP2 SWAP1 POP JUMP JUMPDEST PUSH1 0x0 DUP2 SWAP1 POP SWAP3 SWAP2 POP POP JUMP JUMPDEST PUSH1 0x0 DUP3 DUP3 MSTORE PUSH1 0x20 DUP3 ADD SWAP1 POP SWAP3 SWAP2 POP POP JUMP JUMPDEST PUSH1 0x0 PUSH2 0x3E4 DUP3 PUSH2 0x3EB JUMP JUMPDEST SWAP1 POP SWAP2 SWAP1 POP JUMP JUMPDEST PUSH1 0x0 PUSH20 0xFFFFFFFFFFFFFFFFFFFFFFFFFFFFFFFFFFFFFFFF DUP3 AND SWAP1 POP SWAP2 SWAP1 POP JUMP JUMPDEST PUSH1 0x0 DUP2 SWAP1 POP SWAP2 SWAP1 POP JUMP JUMPDEST PUSH1 0x0 JUMPDEST DUP4 DUP2 LT ISZERO PUSH2 0x433 JUMPI DUP1 DUP3 ADD MLOAD DUP2 DUP5 ADD MSTORE PUSH1 0x20 DUP2 ADD SWAP1 POP PUSH2 0x418 JUMP JUMPDEST DUP4 DUP2 GT ISZERO PUSH2 0x442 JUMPI PUSH1 0x0 DUP5 DUP5 ADD MSTORE JUMPDEST POP POP POP POP JUMP JUMPDEST PUSH2 0x451 DUP2 PUSH2 0x3D9 JUMP JUMPDEST DUP2 EQ PUSH2 0x45C JUMPI PUSH1 0x0 DUP1 REVERT JUMPDEST POP JUMP JUMPDEST PUSH2 0x468 DUP2 PUSH2 0x40B JUMP JUMPDEST DUP2 EQ PUSH2 0x473 JUMPI PUSH1 0x0 DUP1 REVERT JUMPDEST POP JUMP INVALID LOG2 PUSH5 0x6970667358 0x22 SLT KECCAK256 0xAB DUP11 0x24 DUP12 PUSH12 0xB50E8E9F5F95D6356FB4B1E9 0x23 SWAP13 0xC9 PUSH9 0xC0536BE86A9CE440CB PUSH16 0x2F64736F6C6343000800003300000000 "
				},
				"gasEstimates": {
					"creation": {
						"codeDepositCost": "239200",
						"executionCost": "281",
						"totalCost": "239481"
					},
					"external": {
						"num()": "1129",
						"sender()": "1236",
						"setNewValue(address,uint256)": "infinite",
						"value()": "1107"
					}
				},
				"methodIdentifiers": {
					"num()": "4e70b1dc",
					"sender()": "67e404ce",
					"setNewValue(address,uint256)": "bacf78b5",
					"value()": "3fa4f245"
				}
			},
			"storageLayout": {
				"storage": [
					{
						"astId": 30,
						"contract": "contracts/32_Deligatecall.sol:A",
						"label": "num",
						"offset": 0,
						"slot": "0",
						"type": "t_uint256"
					},
					{
						"astId": 32,
						"contract": "contracts/32_Deligatecall.sol:A",
						"label": "sender",
						"offset": 0,
						"slot": "1",
						"type": "t_address"
					},
					{
						"astId": 34,
						"contract": "contracts/32_Deligatecall.sol:A",
						"label": "value",
						"offset": 0,
						"slot": "2",
						"type": "t_uint256"
					}
				],
				"types": {
					"t_address": {
						"encoding": "inplace",
						"label": "address",
						"numberOfBytes": "20"
					},
					"t_uint256": {
						"encoding": "inplace",
						"label": "uint256",
						"numberOfBytes": "32"
					}
				}
			},
			"userdoc": {
				"kind": "user",
				"methods": {},
				"version": 1
			}
		}
	}
}