{
	"contracts/25_eventExample.sol": {
		"eventExample": {
			"abi": [
				{
					"inputs": [],
					"stateMutability": "nonpayable",
					"type": "constructor"
				},
				{
					"anonymous": false,
					"inputs": [
						{
							"indexed": false,
							"internalType": "address",
							"name": "_sender",
							"type": "address"
						},
						{
							"indexed": false,
							"internalType": "address",
							"name": "_to",
							"type": "address"
						},
						{
							"indexed": false,
							"internalType": "uint256",
							"name": "_amount",
							"type": "uint256"
						}
					],
					"name": "tokenTransation",
					"type": "event"
				},
				{
					"inputs": [
						{
							"internalType": "address payable",
							"name": "_to",
							"type": "address"
						},
						{
							"internalType": "uint256",
							"name": "_amount",
							"type": "uint256"
						}
					],
					"name": "sendToken",
					"outputs": [],
					"stateMutability": "nonpayable",
					"type": "function"
				},
				{
					"inputs": [
						{
							"internalType": "address",
							"name": "",
							"type": "address"
						}
					],
					"name": "tokenBalance",
					"outputs": [
						{
							"internalType": "uint256",
							"name": "",
							"type": "uint256"
						}
					],
					"stateMutability": "view",
					"type": "function"
				}
			],
			"devdoc": {
				"kind": "dev",
				"methods": {},
				"version": 1
			},
			"evm": {
				"assembly": "    /* \"contracts/25_eventExample.sol\":66:523  contract eventExample {... */\n  mstore(0x40, 0x80)\n    /* \"contracts/25_eventExample.sol\":226:300  constructor () public{... */\n  callvalue\n  dup1\n  iszero\n  tag_1\n  jumpi\n  0x00\n  dup1\n  revert\ntag_1:\n  pop\n    /* \"contracts/25_eventExample.sol\":285:288  100 */\n  0x64\n    /* \"contracts/25_eventExample.sol\":258:270  tokenBalance */\n  0x00\n    /* \"contracts/25_eventExample.sol\":258:282  tokenBalance[msg.sender] */\n  dup1\n    /* \"contracts/25_eventExample.sol\":271:281  msg.sender */\n  caller\n    /* \"contracts/25_eventExample.sol\":258:282  tokenBalance[msg.sender] */\n  0xffffffffffffffffffffffffffffffffffffffff\n  and\n  0xffffffffffffffffffffffffffffffffffffffff\n  and\n  dup2\n  mstore\n  0x20\n  add\n  swap1\n  dup2\n  mstore\n  0x20\n  add\n  0x00\n  keccak256\n    /* \"contracts/25_eventExample.sol\":258:288  tokenBalance[msg.sender] = 100 */\n  dup2\n  swap1\n  sstore\n  pop\n    /* \"contracts/25_eventExample.sol\":66:523  contract eventExample {... */\n  dataSize(sub_0)\n  dup1\n  dataOffset(sub_0)\n  0x00\n  codecopy\n  0x00\n  return\nstop\n\nsub_0: assembly {\n        /* \"contracts/25_eventExample.sol\":66:523  contract eventExample {... */\n      mstore(0x40, 0x80)\n      callvalue\n      dup1\n      iszero\n      tag_1\n      jumpi\n      0x00\n      dup1\n      revert\n    tag_1:\n      pop\n      jumpi(tag_2, lt(calldatasize, 0x04))\n      shr(0xe0, calldataload(0x00))\n      dup1\n      0x412664ae\n      eq\n      tag_3\n      jumpi\n      dup1\n      0xeedc966a\n      eq\n      tag_4\n      jumpi\n    tag_2:\n      0x00\n      dup1\n      revert\n        /* \"contracts/25_eventExample.sol\":306:510  function sendToken (address payable _to, uint _amount) public {... */\n    tag_3:\n      tag_5\n      0x04\n      dup1\n      calldatasize\n      sub\n      dup2\n      add\n      swap1\n      tag_6\n      swap2\n      swap1\n      tag_7\n      jump\t// in\n    tag_6:\n      tag_8\n      jump\t// in\n    tag_5:\n      stop\n        /* \"contracts/25_eventExample.sol\":95:140  mapping (address => uint) public tokenBalance */\n    tag_4:\n      tag_9\n      0x04\n      dup1\n      calldatasize\n      sub\n      dup2\n      add\n      swap1\n      tag_10\n      swap2\n      swap1\n      tag_11\n      jump\t// in\n    tag_10:\n      tag_12\n      jump\t// in\n    tag_9:\n      mload(0x40)\n      tag_13\n      swap2\n      swap1\n      tag_14\n      jump\t// in\n    tag_13:\n      mload(0x40)\n      dup1\n      swap2\n      sub\n      swap1\n      return\n        /* \"contracts/25_eventExample.sol\":306:510  function sendToken (address payable _to, uint _amount) public {... */\n    tag_8:\n        /* \"contracts/25_eventExample.sol\":407:414  _amount */\n      dup1\n        /* \"contracts/25_eventExample.sol\":379:391  tokenBalance */\n      0x00\n        /* \"contracts/25_eventExample.sol\":379:403  tokenBalance[msg.sender] */\n      dup1\n        /* \"contracts/25_eventExample.sol\":392:402  msg.sender */\n      caller\n        /* \"contracts/25_eventExample.sol\":379:403  tokenBalance[msg.sender] */\n      0xffffffffffffffffffffffffffffffffffffffff\n      and\n      0xffffffffffffffffffffffffffffffffffffffff\n      and\n      dup2\n      mstore\n      0x20\n      add\n      swap1\n      dup2\n      mstore\n      0x20\n      add\n      0x00\n      keccak256\n      0x00\n        /* \"contracts/25_eventExample.sol\":379:414  tokenBalance[msg.sender] -= _amount */\n      dup3\n      dup3\n      sload\n      tag_16\n      swap2\n      swap1\n      tag_17\n      jump\t// in\n    tag_16:\n      swap3\n      pop\n      pop\n      dup2\n      swap1\n      sstore\n      pop\n        /* \"contracts/25_eventExample.sol\":437:444  _amount */\n      dup1\n        /* \"contracts/25_eventExample.sol\":417:429  tokenBalance */\n      0x00\n        /* \"contracts/25_eventExample.sol\":417:434  tokenBalance[_to] */\n      dup1\n        /* \"contracts/25_eventExample.sol\":430:433  _to */\n      dup5\n        /* \"contracts/25_eventExample.sol\":417:434  tokenBalance[_to] */\n      0xffffffffffffffffffffffffffffffffffffffff\n      and\n      0xffffffffffffffffffffffffffffffffffffffff\n      and\n      dup2\n      mstore\n      0x20\n      add\n      swap1\n      dup2\n      mstore\n      0x20\n      add\n      0x00\n      keccak256\n      0x00\n        /* \"contracts/25_eventExample.sol\":417:444  tokenBalance[_to]+= _amount */\n      dup3\n      dup3\n      sload\n      tag_18\n      swap2\n      swap1\n      tag_19\n      jump\t// in\n    tag_18:\n      swap3\n      pop\n      pop\n      dup2\n      swap1\n      sstore\n      pop\n        /* \"contracts/25_eventExample.sol\":460:502  tokenTransation (msg.sender, _to, _amount) */\n      0xf887a48e500d14a584e2d83c8dc4f167643cdc1be1e8096083ebad087b0d273a\n        /* \"contracts/25_eventExample.sol\":477:487  msg.sender */\n      caller\n        /* \"contracts/25_eventExample.sol\":489:492  _to */\n      dup4\n        /* \"contracts/25_eventExample.sol\":494:501  _amount */\n      dup4\n        /* \"contracts/25_eventExample.sol\":460:502  tokenTransation (msg.sender, _to, _amount) */\n      mload(0x40)\n      tag_20\n      swap4\n      swap3\n      swap2\n      swap1\n      tag_21\n      jump\t// in\n    tag_20:\n      mload(0x40)\n      dup1\n      swap2\n      sub\n      swap1\n      log1\n        /* \"contracts/25_eventExample.sol\":306:510  function sendToken (address payable _to, uint _amount) public {... */\n      pop\n      pop\n      jump\t// out\n        /* \"contracts/25_eventExample.sol\":95:140  mapping (address => uint) public tokenBalance */\n    tag_12:\n      mstore(0x20, 0x00)\n      dup1\n      0x00\n      mstore\n      keccak256(0x00, 0x40)\n      0x00\n      swap2\n      pop\n      swap1\n      pop\n      sload\n      dup2\n      jump\t// out\n        /* \"#utility.yul\":88:205   */\n    tag_23:\n        /* \"#utility.yul\":197:198   */\n      0x00\n        /* \"#utility.yul\":194:195   */\n      dup1\n        /* \"#utility.yul\":187:199   */\n      revert\n        /* \"#utility.yul\":334:460   */\n    tag_25:\n        /* \"#utility.yul\":371:378   */\n      0x00\n        /* \"#utility.yul\":411:453   */\n      0xffffffffffffffffffffffffffffffffffffffff\n        /* \"#utility.yul\":404:409   */\n      dup3\n        /* \"#utility.yul\":400:454   */\n      and\n        /* \"#utility.yul\":389:454   */\n      swap1\n      pop\n        /* \"#utility.yul\":334:460   */\n      swap2\n      swap1\n      pop\n      jump\t// out\n        /* \"#utility.yul\":466:570   */\n    tag_26:\n        /* \"#utility.yul\":511:518   */\n      0x00\n        /* \"#utility.yul\":540:564   */\n      tag_49\n        /* \"#utility.yul\":558:563   */\n      dup3\n        /* \"#utility.yul\":540:564   */\n      tag_25\n      jump\t// in\n    tag_49:\n        /* \"#utility.yul\":529:564   */\n      swap1\n      pop\n        /* \"#utility.yul\":466:570   */\n      swap2\n      swap1\n      pop\n      jump\t// out\n        /* \"#utility.yul\":576:714   */\n    tag_27:\n        /* \"#utility.yul\":657:689   */\n      tag_51\n        /* \"#utility.yul\":683:688   */\n      dup2\n        /* \"#utility.yul\":657:689   */\n      tag_26\n      jump\t// in\n    tag_51:\n        /* \"#utility.yul\":650:655   */\n      dup2\n        /* \"#utility.yul\":647:690   */\n      eq\n        /* \"#utility.yul\":637:708   */\n      tag_52\n      jumpi\n        /* \"#utility.yul\":704:705   */\n      0x00\n        /* \"#utility.yul\":701:702   */\n      dup1\n        /* \"#utility.yul\":694:706   */\n      revert\n        /* \"#utility.yul\":637:708   */\n    tag_52:\n        /* \"#utility.yul\":576:714   */\n      pop\n      jump\t// out\n        /* \"#utility.yul\":720:875   */\n    tag_28:\n        /* \"#utility.yul\":774:779   */\n      0x00\n        /* \"#utility.yul\":812:818   */\n      dup2\n        /* \"#utility.yul\":799:819   */\n      calldataload\n        /* \"#utility.yul\":790:819   */\n      swap1\n      pop\n        /* \"#utility.yul\":828:869   */\n      tag_54\n        /* \"#utility.yul\":863:868   */\n      dup2\n        /* \"#utility.yul\":828:869   */\n      tag_27\n      jump\t// in\n    tag_54:\n        /* \"#utility.yul\":720:875   */\n      swap3\n      swap2\n      pop\n      pop\n      jump\t// out\n        /* \"#utility.yul\":881:958   */\n    tag_29:\n        /* \"#utility.yul\":918:925   */\n      0x00\n        /* \"#utility.yul\":947:952   */\n      dup2\n        /* \"#utility.yul\":936:952   */\n      swap1\n      pop\n        /* \"#utility.yul\":881:958   */\n      swap2\n      swap1\n      pop\n      jump\t// out\n        /* \"#utility.yul\":964:1086   */\n    tag_30:\n        /* \"#utility.yul\":1037:1061   */\n      tag_57\n        /* \"#utility.yul\":1055:1060   */\n      dup2\n        /* \"#utility.yul\":1037:1061   */\n      tag_29\n      jump\t// in\n    tag_57:\n        /* \"#utility.yul\":1030:1035   */\n      dup2\n        /* \"#utility.yul\":1027:1062   */\n      eq\n        /* \"#utility.yul\":1017:1080   */\n      tag_58\n      jumpi\n        /* \"#utility.yul\":1076:1077   */\n      0x00\n        /* \"#utility.yul\":1073:1074   */\n      dup1\n        /* \"#utility.yul\":1066:1078   */\n      revert\n        /* \"#utility.yul\":1017:1080   */\n    tag_58:\n        /* \"#utility.yul\":964:1086   */\n      pop\n      jump\t// out\n        /* \"#utility.yul\":1092:1231   */\n    tag_31:\n        /* \"#utility.yul\":1138:1143   */\n      0x00\n        /* \"#utility.yul\":1176:1182   */\n      dup2\n        /* \"#utility.yul\":1163:1183   */\n      calldataload\n        /* \"#utility.yul\":1154:1183   */\n      swap1\n      pop\n        /* \"#utility.yul\":1192:1225   */\n      tag_60\n        /* \"#utility.yul\":1219:1224   */\n      dup2\n        /* \"#utility.yul\":1192:1225   */\n      tag_30\n      jump\t// in\n    tag_60:\n        /* \"#utility.yul\":1092:1231   */\n      swap3\n      swap2\n      pop\n      pop\n      jump\t// out\n        /* \"#utility.yul\":1237:1727   */\n    tag_7:\n        /* \"#utility.yul\":1313:1319   */\n      0x00\n        /* \"#utility.yul\":1321:1327   */\n      dup1\n        /* \"#utility.yul\":1370:1372   */\n      0x40\n        /* \"#utility.yul\":1358:1367   */\n      dup4\n        /* \"#utility.yul\":1349:1356   */\n      dup6\n        /* \"#utility.yul\":1345:1368   */\n      sub\n        /* \"#utility.yul\":1341:1373   */\n      slt\n        /* \"#utility.yul\":1338:1457   */\n      iszero\n      tag_62\n      jumpi\n        /* \"#utility.yul\":1376:1455   */\n      tag_63\n      tag_23\n      jump\t// in\n    tag_63:\n        /* \"#utility.yul\":1338:1457   */\n    tag_62:\n        /* \"#utility.yul\":1496:1497   */\n      0x00\n        /* \"#utility.yul\":1521:1582   */\n      tag_64\n        /* \"#utility.yul\":1574:1581   */\n      dup6\n        /* \"#utility.yul\":1565:1571   */\n      dup3\n        /* \"#utility.yul\":1554:1563   */\n      dup7\n        /* \"#utility.yul\":1550:1572   */\n      add\n        /* \"#utility.yul\":1521:1582   */\n      tag_28\n      jump\t// in\n    tag_64:\n        /* \"#utility.yul\":1511:1582   */\n      swap3\n      pop\n        /* \"#utility.yul\":1467:1592   */\n      pop\n        /* \"#utility.yul\":1631:1633   */\n      0x20\n        /* \"#utility.yul\":1657:1710   */\n      tag_65\n        /* \"#utility.yul\":1702:1709   */\n      dup6\n        /* \"#utility.yul\":1693:1699   */\n      dup3\n        /* \"#utility.yul\":1682:1691   */\n      dup7\n        /* \"#utility.yul\":1678:1700   */\n      add\n        /* \"#utility.yul\":1657:1710   */\n      tag_31\n      jump\t// in\n    tag_65:\n        /* \"#utility.yul\":1647:1710   */\n      swap2\n      pop\n        /* \"#utility.yul\":1602:1720   */\n      pop\n        /* \"#utility.yul\":1237:1727   */\n      swap3\n      pop\n      swap3\n      swap1\n      pop\n      jump\t// out\n        /* \"#utility.yul\":1733:1829   */\n    tag_32:\n        /* \"#utility.yul\":1770:1777   */\n      0x00\n        /* \"#utility.yul\":1799:1823   */\n      tag_67\n        /* \"#utility.yul\":1817:1822   */\n      dup3\n        /* \"#utility.yul\":1799:1823   */\n      tag_25\n      jump\t// in\n    tag_67:\n        /* \"#utility.yul\":1788:1823   */\n      swap1\n      pop\n        /* \"#utility.yul\":1733:1829   */\n      swap2\n      swap1\n      pop\n      jump\t// out\n        /* \"#utility.yul\":1835:1957   */\n    tag_33:\n        /* \"#utility.yul\":1908:1932   */\n      tag_69\n        /* \"#utility.yul\":1926:1931   */\n      dup2\n        /* \"#utility.yul\":1908:1932   */\n      tag_32\n      jump\t// in\n    tag_69:\n        /* \"#utility.yul\":1901:1906   */\n      dup2\n        /* \"#utility.yul\":1898:1933   */\n      eq\n        /* \"#utility.yul\":1888:1951   */\n      tag_70\n      jumpi\n        /* \"#utility.yul\":1947:1948   */\n      0x00\n        /* \"#utility.yul\":1944:1945   */\n      dup1\n        /* \"#utility.yul\":1937:1949   */\n      revert\n        /* \"#utility.yul\":1888:1951   */\n    tag_70:\n        /* \"#utility.yul\":1835:1957   */\n      pop\n      jump\t// out\n        /* \"#utility.yul\":1963:2102   */\n    tag_34:\n        /* \"#utility.yul\":2009:2014   */\n      0x00\n        /* \"#utility.yul\":2047:2053   */\n      dup2\n        /* \"#utility.yul\":2034:2054   */\n      calldataload\n        /* \"#utility.yul\":2025:2054   */\n      swap1\n      pop\n        /* \"#utility.yul\":2063:2096   */\n      tag_72\n        /* \"#utility.yul\":2090:2095   */\n      dup2\n        /* \"#utility.yul\":2063:2096   */\n      tag_33\n      jump\t// in\n    tag_72:\n        /* \"#utility.yul\":1963:2102   */\n      swap3\n      swap2\n      pop\n      pop\n      jump\t// out\n        /* \"#utility.yul\":2108:2437   */\n    tag_11:\n        /* \"#utility.yul\":2167:2173   */\n      0x00\n        /* \"#utility.yul\":2216:2218   */\n      0x20\n        /* \"#utility.yul\":2204:2213   */\n      dup3\n        /* \"#utility.yul\":2195:2202   */\n      dup5\n        /* \"#utility.yul\":2191:2214   */\n      sub\n        /* \"#utility.yul\":2187:2219   */\n      slt\n        /* \"#utility.yul\":2184:2303   */\n      iszero\n      tag_74\n      jumpi\n        /* \"#utility.yul\":2222:2301   */\n      tag_75\n      tag_23\n      jump\t// in\n    tag_75:\n        /* \"#utility.yul\":2184:2303   */\n    tag_74:\n        /* \"#utility.yul\":2342:2343   */\n      0x00\n        /* \"#utility.yul\":2367:2420   */\n      tag_76\n        /* \"#utility.yul\":2412:2419   */\n      dup5\n        /* \"#utility.yul\":2403:2409   */\n      dup3\n        /* \"#utility.yul\":2392:2401   */\n      dup6\n        /* \"#utility.yul\":2388:2410   */\n      add\n        /* \"#utility.yul\":2367:2420   */\n      tag_34\n      jump\t// in\n    tag_76:\n        /* \"#utility.yul\":2357:2420   */\n      swap2\n      pop\n        /* \"#utility.yul\":2313:2430   */\n      pop\n        /* \"#utility.yul\":2108:2437   */\n      swap3\n      swap2\n      pop\n      pop\n      jump\t// out\n        /* \"#utility.yul\":2443:2561   */\n    tag_35:\n        /* \"#utility.yul\":2530:2554   */\n      tag_78\n        /* \"#utility.yul\":2548:2553   */\n      dup2\n        /* \"#utility.yul\":2530:2554   */\n      tag_29\n      jump\t// in\n    tag_78:\n        /* \"#utility.yul\":2525:2528   */\n      dup3\n        /* \"#utility.yul\":2518:2555   */\n      mstore\n        /* \"#utility.yul\":2443:2561   */\n      pop\n      pop\n      jump\t// out\n        /* \"#utility.yul\":2567:2789   */\n    tag_14:\n        /* \"#utility.yul\":2660:2664   */\n      0x00\n        /* \"#utility.yul\":2698:2700   */\n      0x20\n        /* \"#utility.yul\":2687:2696   */\n      dup3\n        /* \"#utility.yul\":2683:2701   */\n      add\n        /* \"#utility.yul\":2675:2701   */\n      swap1\n      pop\n        /* \"#utility.yul\":2711:2782   */\n      tag_80\n        /* \"#utility.yul\":2779:2780   */\n      0x00\n        /* \"#utility.yul\":2768:2777   */\n      dup4\n        /* \"#utility.yul\":2764:2781   */\n      add\n        /* \"#utility.yul\":2755:2761   */\n      dup5\n        /* \"#utility.yul\":2711:2782   */\n      tag_35\n      jump\t// in\n    tag_80:\n        /* \"#utility.yul\":2567:2789   */\n      swap3\n      swap2\n      pop\n      pop\n      jump\t// out\n        /* \"#utility.yul\":2795:2975   */\n    tag_36:\n        /* \"#utility.yul\":2843:2920   */\n      0x4e487b7100000000000000000000000000000000000000000000000000000000\n        /* \"#utility.yul\":2840:2841   */\n      0x00\n        /* \"#utility.yul\":2833:2921   */\n      mstore\n        /* \"#utility.yul\":2940:2944   */\n      0x11\n        /* \"#utility.yul\":2937:2938   */\n      0x04\n        /* \"#utility.yul\":2930:2945   */\n      mstore\n        /* \"#utility.yul\":2964:2968   */\n      0x24\n        /* \"#utility.yul\":2961:2962   */\n      0x00\n        /* \"#utility.yul\":2954:2969   */\n      revert\n        /* \"#utility.yul\":2981:3172   */\n    tag_17:\n        /* \"#utility.yul\":3021:3025   */\n      0x00\n        /* \"#utility.yul\":3041:3061   */\n      tag_83\n        /* \"#utility.yul\":3059:3060   */\n      dup3\n        /* \"#utility.yul\":3041:3061   */\n      tag_29\n      jump\t// in\n    tag_83:\n        /* \"#utility.yul\":3036:3061   */\n      swap2\n      pop\n        /* \"#utility.yul\":3075:3095   */\n      tag_84\n        /* \"#utility.yul\":3093:3094   */\n      dup4\n        /* \"#utility.yul\":3075:3095   */\n      tag_29\n      jump\t// in\n    tag_84:\n        /* \"#utility.yul\":3070:3095   */\n      swap3\n      pop\n        /* \"#utility.yul\":3114:3115   */\n      dup3\n        /* \"#utility.yul\":3111:3112   */\n      dup3\n        /* \"#utility.yul\":3108:3116   */\n      lt\n        /* \"#utility.yul\":3105:3139   */\n      iszero\n      tag_85\n      jumpi\n        /* \"#utility.yul\":3119:3137   */\n      tag_86\n      tag_36\n      jump\t// in\n    tag_86:\n        /* \"#utility.yul\":3105:3139   */\n    tag_85:\n        /* \"#utility.yul\":3164:3165   */\n      dup3\n        /* \"#utility.yul\":3161:3162   */\n      dup3\n        /* \"#utility.yul\":3157:3166   */\n      sub\n        /* \"#utility.yul\":3149:3166   */\n      swap1\n      pop\n        /* \"#utility.yul\":2981:3172   */\n      swap3\n      swap2\n      pop\n      pop\n      jump\t// out\n        /* \"#utility.yul\":3178:3483   */\n    tag_19:\n        /* \"#utility.yul\":3218:3221   */\n      0x00\n        /* \"#utility.yul\":3237:3257   */\n      tag_88\n        /* \"#utility.yul\":3255:3256   */\n      dup3\n        /* \"#utility.yul\":3237:3257   */\n      tag_29\n      jump\t// in\n    tag_88:\n        /* \"#utility.yul\":3232:3257   */\n      swap2\n      pop\n        /* \"#utility.yul\":3271:3291   */\n      tag_89\n        /* \"#utility.yul\":3289:3290   */\n      dup4\n        /* \"#utility.yul\":3271:3291   */\n      tag_29\n      jump\t// in\n    tag_89:\n        /* \"#utility.yul\":3266:3291   */\n      swap3\n      pop\n        /* \"#utility.yul\":3425:3426   */\n      dup3\n        /* \"#utility.yul\":3357:3423   */\n      0xffffffffffffffffffffffffffffffffffffffffffffffffffffffffffffffff\n        /* \"#utility.yul\":3353:3427   */\n      sub\n        /* \"#utility.yul\":3350:3351   */\n      dup3\n        /* \"#utility.yul\":3347:3428   */\n      gt\n        /* \"#utility.yul\":3344:3451   */\n      iszero\n      tag_90\n      jumpi\n        /* \"#utility.yul\":3431:3449   */\n      tag_91\n      tag_36\n      jump\t// in\n    tag_91:\n        /* \"#utility.yul\":3344:3451   */\n    tag_90:\n        /* \"#utility.yul\":3475:3476   */\n      dup3\n        /* \"#utility.yul\":3472:3473   */\n      dup3\n        /* \"#utility.yul\":3468:3477   */\n      add\n        /* \"#utility.yul\":3461:3477   */\n      swap1\n      pop\n        /* \"#utility.yul\":3178:3483   */\n      swap3\n      swap2\n      pop\n      pop\n      jump\t// out\n        /* \"#utility.yul\":3489:3607   */\n    tag_37:\n        /* \"#utility.yul\":3576:3600   */\n      tag_93\n        /* \"#utility.yul\":3594:3599   */\n      dup2\n        /* \"#utility.yul\":3576:3600   */\n      tag_32\n      jump\t// in\n    tag_93:\n        /* \"#utility.yul\":3571:3574   */\n      dup3\n        /* \"#utility.yul\":3564:3601   */\n      mstore\n        /* \"#utility.yul\":3489:3607   */\n      pop\n      pop\n      jump\t// out\n        /* \"#utility.yul\":3613:3673   */\n    tag_38:\n        /* \"#utility.yul\":3641:3644   */\n      0x00\n        /* \"#utility.yul\":3662:3667   */\n      dup2\n        /* \"#utility.yul\":3655:3667   */\n      swap1\n      pop\n        /* \"#utility.yul\":3613:3673   */\n      swap2\n      swap1\n      pop\n      jump\t// out\n        /* \"#utility.yul\":3679:3821   */\n    tag_39:\n        /* \"#utility.yul\":3729:3738   */\n      0x00\n        /* \"#utility.yul\":3762:3815   */\n      tag_96\n        /* \"#utility.yul\":3780:3814   */\n      tag_97\n        /* \"#utility.yul\":3789:3813   */\n      tag_98\n        /* \"#utility.yul\":3807:3812   */\n      dup5\n        /* \"#utility.yul\":3789:3813   */\n      tag_25\n      jump\t// in\n    tag_98:\n        /* \"#utility.yul\":3780:3814   */\n      tag_38\n      jump\t// in\n    tag_97:\n        /* \"#utility.yul\":3762:3815   */\n      tag_25\n      jump\t// in\n    tag_96:\n        /* \"#utility.yul\":3749:3815   */\n      swap1\n      pop\n        /* \"#utility.yul\":3679:3821   */\n      swap2\n      swap1\n      pop\n      jump\t// out\n        /* \"#utility.yul\":3827:3953   */\n    tag_40:\n        /* \"#utility.yul\":3877:3886   */\n      0x00\n        /* \"#utility.yul\":3910:3947   */\n      tag_100\n        /* \"#utility.yul\":3941:3946   */\n      dup3\n        /* \"#utility.yul\":3910:3947   */\n      tag_39\n      jump\t// in\n    tag_100:\n        /* \"#utility.yul\":3897:3947   */\n      swap1\n      pop\n        /* \"#utility.yul\":3827:3953   */\n      swap2\n      swap1\n      pop\n      jump\t// out\n        /* \"#utility.yul\":3959:4093   */\n    tag_41:\n        /* \"#utility.yul\":4017:4026   */\n      0x00\n        /* \"#utility.yul\":4050:4087   */\n      tag_102\n        /* \"#utility.yul\":4081:4086   */\n      dup3\n        /* \"#utility.yul\":4050:4087   */\n      tag_40\n      jump\t// in\n    tag_102:\n        /* \"#utility.yul\":4037:4087   */\n      swap1\n      pop\n        /* \"#utility.yul\":3959:4093   */\n      swap2\n      swap1\n      pop\n      jump\t// out\n        /* \"#utility.yul\":4099:4246   */\n    tag_42:\n        /* \"#utility.yul\":4194:4239   */\n      tag_104\n        /* \"#utility.yul\":4233:4238   */\n      dup2\n        /* \"#utility.yul\":4194:4239   */\n      tag_41\n      jump\t// in\n    tag_104:\n        /* \"#utility.yul\":4189:4192   */\n      dup3\n        /* \"#utility.yul\":4182:4240   */\n      mstore\n        /* \"#utility.yul\":4099:4246   */\n      pop\n      pop\n      jump\t// out\n        /* \"#utility.yul\":4252:4710   */\n    tag_21:\n        /* \"#utility.yul\":4409:4413   */\n      0x00\n        /* \"#utility.yul\":4447:4449   */\n      0x60\n        /* \"#utility.yul\":4436:4445   */\n      dup3\n        /* \"#utility.yul\":4432:4450   */\n      add\n        /* \"#utility.yul\":4424:4450   */\n      swap1\n      pop\n        /* \"#utility.yul\":4460:4531   */\n      tag_106\n        /* \"#utility.yul\":4528:4529   */\n      0x00\n        /* \"#utility.yul\":4517:4526   */\n      dup4\n        /* \"#utility.yul\":4513:4530   */\n      add\n        /* \"#utility.yul\":4504:4510   */\n      dup7\n        /* \"#utility.yul\":4460:4531   */\n      tag_37\n      jump\t// in\n    tag_106:\n        /* \"#utility.yul\":4541:4621   */\n      tag_107\n        /* \"#utility.yul\":4617:4619   */\n      0x20\n        /* \"#utility.yul\":4606:4615   */\n      dup4\n        /* \"#utility.yul\":4602:4620   */\n      add\n        /* \"#utility.yul\":4593:4599   */\n      dup6\n        /* \"#utility.yul\":4541:4621   */\n      tag_42\n      jump\t// in\n    tag_107:\n        /* \"#utility.yul\":4631:4703   */\n      tag_108\n        /* \"#utility.yul\":4699:4701   */\n      0x40\n        /* \"#utility.yul\":4688:4697   */\n      dup4\n        /* \"#utility.yul\":4684:4702   */\n      add\n        /* \"#utility.yul\":4675:4681   */\n      dup5\n        /* \"#utility.yul\":4631:4703   */\n      tag_35\n      jump\t// in\n    tag_108:\n        /* \"#utility.yul\":4252:4710   */\n      swap5\n      swap4\n      pop\n      pop\n      pop\n      pop\n      jump\t// out\n\n    auxdata: 0xa264697066735822122065937b5aa2a407d5878dfd93850c346ef65098c36cf38260a5f7ba58fdea7eb364736f6c634300080d0033\n}\n",
				"bytecode": {
					"linkReferences": {},
					"object": "608060405234801561001057600080fd5b5060646000803373ffffffffffffffffffffffffffffffffffffffff1673ffffffffffffffffffffffffffffffffffffffff1681526020019081526020016000208190555061048a806100646000396000f3fe608060405234801561001057600080fd5b50600436106100365760003560e01c8063412664ae1461003b578063eedc966a14610057575b600080fd5b61005560048036038101906100509190610221565b610087565b005b610071600480360381019061006c919061029f565b610170565b60405161007e91906102db565b60405180910390f35b806000803373ffffffffffffffffffffffffffffffffffffffff1673ffffffffffffffffffffffffffffffffffffffff16815260200190815260200160002060008282546100d59190610325565b92505081905550806000808473ffffffffffffffffffffffffffffffffffffffff1673ffffffffffffffffffffffffffffffffffffffff168152602001908152602001600020600082825461012a9190610359565b925050819055507ff887a48e500d14a584e2d83c8dc4f167643cdc1be1e8096083ebad087b0d273a3383836040516101649392919061041d565b60405180910390a15050565b60006020528060005260406000206000915090505481565b600080fd5b600073ffffffffffffffffffffffffffffffffffffffff82169050919050565b60006101b88261018d565b9050919050565b6101c8816101ad565b81146101d357600080fd5b50565b6000813590506101e5816101bf565b92915050565b6000819050919050565b6101fe816101eb565b811461020957600080fd5b50565b60008135905061021b816101f5565b92915050565b6000806040838503121561023857610237610188565b5b6000610246858286016101d6565b92505060206102578582860161020c565b9150509250929050565b600061026c8261018d565b9050919050565b61027c81610261565b811461028757600080fd5b50565b60008135905061029981610273565b92915050565b6000602082840312156102b5576102b4610188565b5b60006102c38482850161028a565b91505092915050565b6102d5816101eb565b82525050565b60006020820190506102f060008301846102cc565b92915050565b7f4e487b7100000000000000000000000000000000000000000000000000000000600052601160045260246000fd5b6000610330826101eb565b915061033b836101eb565b92508282101561034e5761034d6102f6565b5b828203905092915050565b6000610364826101eb565b915061036f836101eb565b9250827fffffffffffffffffffffffffffffffffffffffffffffffffffffffffffffffff038211156103a4576103a36102f6565b5b828201905092915050565b6103b881610261565b82525050565b6000819050919050565b60006103e36103de6103d98461018d565b6103be565b61018d565b9050919050565b60006103f5826103c8565b9050919050565b6000610407826103ea565b9050919050565b610417816103fc565b82525050565b600060608201905061043260008301866103af565b61043f602083018561040e565b61044c60408301846102cc565b94935050505056fea264697066735822122065937b5aa2a407d5878dfd93850c346ef65098c36cf38260a5f7ba58fdea7eb364736f6c634300080d0033",
					"opcodes": "PUSH1 0x80 PUSH1 0x40 MSTORE CALLVALUE DUP1 ISZERO PUSH2 0x10 JUMPI PUSH1 0x0 DUP1 REVERT JUMPDEST POP PUSH1 0x64 PUSH1 0x0 DUP1 CALLER PUSH20 0xFFFFFFFFFFFFFFFFFFFFFFFFFFFFFFFFFFFFFFFF AND PUSH20 0xFFFFFFFFFFFFFFFFFFFFFFFFFFFFFFFFFFFFFFFF AND DUP2 MSTORE PUSH1 0x20 ADD SWAP1 DUP2 MSTORE PUSH1 0x20 ADD PUSH1 0x0 KECCAK256 DUP2 SWAP1 SSTORE POP PUSH2 0x48A DUP1 PUSH2 0x64 PUSH1 0x0 CODECOPY PUSH1 0x0 RETURN INVALID PUSH1 0x80 PUSH1 0x40 MSTORE CALLVALUE DUP1 ISZERO PUSH2 0x10 JUMPI PUSH1 0x0 DUP1 REVERT JUMPDEST POP PUSH1 0x4 CALLDATASIZE LT PUSH2 0x36 JUMPI PUSH1 0x0 CALLDATALOAD PUSH1 0xE0 SHR DUP1 PUSH4 0x412664AE EQ PUSH2 0x3B JUMPI DUP1 PUSH4 0xEEDC966A EQ PUSH2 0x57 JUMPI JUMPDEST PUSH1 0x0 DUP1 REVERT JUMPDEST PUSH2 0x55 PUSH1 0x4 DUP1 CALLDATASIZE SUB DUP2 ADD SWAP1 PUSH2 0x50 SWAP2 SWAP1 PUSH2 0x221 JUMP JUMPDEST PUSH2 0x87 JUMP JUMPDEST STOP JUMPDEST PUSH2 0x71 PUSH1 0x4 DUP1 CALLDATASIZE SUB DUP2 ADD SWAP1 PUSH2 0x6C SWAP2 SWAP1 PUSH2 0x29F JUMP JUMPDEST PUSH2 0x170 JUMP JUMPDEST PUSH1 0x40 MLOAD PUSH2 0x7E SWAP2 SWAP1 PUSH2 0x2DB JUMP JUMPDEST PUSH1 0x40 MLOAD DUP1 SWAP2 SUB SWAP1 RETURN JUMPDEST DUP1 PUSH1 0x0 DUP1 CALLER PUSH20 0xFFFFFFFFFFFFFFFFFFFFFFFFFFFFFFFFFFFFFFFF AND PUSH20 0xFFFFFFFFFFFFFFFFFFFFFFFFFFFFFFFFFFFFFFFF AND DUP2 MSTORE PUSH1 0x20 ADD SWAP1 DUP2 MSTORE PUSH1 0x20 ADD PUSH1 0x0 KECCAK256 PUSH1 0x0 DUP3 DUP3 SLOAD PUSH2 0xD5 SWAP2 SWAP1 PUSH2 0x325 JUMP JUMPDEST SWAP3 POP POP DUP2 SWAP1 SSTORE POP DUP1 PUSH1 0x0 DUP1 DUP5 PUSH20 0xFFFFFFFFFFFFFFFFFFFFFFFFFFFFFFFFFFFFFFFF AND PUSH20 0xFFFFFFFFFFFFFFFFFFFFFFFFFFFFFFFFFFFFFFFF AND DUP2 MSTORE PUSH1 0x20 ADD SWAP1 DUP2 MSTORE PUSH1 0x20 ADD PUSH1 0x0 KECCAK256 PUSH1 0x0 DUP3 DUP3 SLOAD PUSH2 0x12A SWAP2 SWAP1 PUSH2 0x359 JUMP JUMPDEST SWAP3 POP POP DUP2 SWAP1 SSTORE POP PUSH32 0xF887A48E500D14A584E2D83C8DC4F167643CDC1BE1E8096083EBAD087B0D273A CALLER DUP4 DUP4 PUSH1 0x40 MLOAD PUSH2 0x164 SWAP4 SWAP3 SWAP2 SWAP1 PUSH2 0x41D JUMP JUMPDEST PUSH1 0x40 MLOAD DUP1 SWAP2 SUB SWAP1 LOG1 POP POP JUMP JUMPDEST PUSH1 0x0 PUSH1 0x20 MSTORE DUP1 PUSH1 0x0 MSTORE PUSH1 0x40 PUSH1 0x0 KECCAK256 PUSH1 0x0 SWAP2 POP SWAP1 POP SLOAD DUP2 JUMP JUMPDEST PUSH1 0x0 DUP1 REVERT JUMPDEST PUSH1 0x0 PUSH20 0xFFFFFFFFFFFFFFFFFFFFFFFFFFFFFFFFFFFFFFFF DUP3 AND SWAP1 POP SWAP2 SWAP1 POP JUMP JUMPDEST PUSH1 0x0 PUSH2 0x1B8 DUP3 PUSH2 0x18D JUMP JUMPDEST SWAP1 POP SWAP2 SWAP1 POP JUMP JUMPDEST PUSH2 0x1C8 DUP2 PUSH2 0x1AD JUMP JUMPDEST DUP2 EQ PUSH2 0x1D3 JUMPI PUSH1 0x0 DUP1 REVERT JUMPDEST POP JUMP JUMPDEST PUSH1 0x0 DUP2 CALLDATALOAD SWAP1 POP PUSH2 0x1E5 DUP2 PUSH2 0x1BF JUMP JUMPDEST SWAP3 SWAP2 POP POP JUMP JUMPDEST PUSH1 0x0 DUP2 SWAP1 POP SWAP2 SWAP1 POP JUMP JUMPDEST PUSH2 0x1FE DUP2 PUSH2 0x1EB JUMP JUMPDEST DUP2 EQ PUSH2 0x209 JUMPI PUSH1 0x0 DUP1 REVERT JUMPDEST POP JUMP JUMPDEST PUSH1 0x0 DUP2 CALLDATALOAD SWAP1 POP PUSH2 0x21B DUP2 PUSH2 0x1F5 JUMP JUMPDEST SWAP3 SWAP2 POP POP JUMP JUMPDEST PUSH1 0x0 DUP1 PUSH1 0x40 DUP4 DUP6 SUB SLT ISZERO PUSH2 0x238 JUMPI PUSH2 0x237 PUSH2 0x188 JUMP JUMPDEST JUMPDEST PUSH1 0x0 PUSH2 0x246 DUP6 DUP3 DUP7 ADD PUSH2 0x1D6 JUMP JUMPDEST SWAP3 POP POP PUSH1 0x20 PUSH2 0x257 DUP6 DUP3 DUP7 ADD PUSH2 0x20C JUMP JUMPDEST SWAP2 POP POP SWAP3 POP SWAP3 SWAP1 POP JUMP JUMPDEST PUSH1 0x0 PUSH2 0x26C DUP3 PUSH2 0x18D JUMP JUMPDEST SWAP1 POP SWAP2 SWAP1 POP JUMP JUMPDEST PUSH2 0x27C DUP2 PUSH2 0x261 JUMP JUMPDEST DUP2 EQ PUSH2 0x287 JUMPI PUSH1 0x0 DUP1 REVERT JUMPDEST POP JUMP JUMPDEST PUSH1 0x0 DUP2 CALLDATALOAD SWAP1 POP PUSH2 0x299 DUP2 PUSH2 0x273 JUMP JUMPDEST SWAP3 SWAP2 POP POP JUMP JUMPDEST PUSH1 0x0 PUSH1 0x20 DUP3 DUP5 SUB SLT ISZERO PUSH2 0x2B5 JUMPI PUSH2 0x2B4 PUSH2 0x188 JUMP JUMPDEST JUMPDEST PUSH1 0x0 PUSH2 0x2C3 DUP5 DUP3 DUP6 ADD PUSH2 0x28A JUMP JUMPDEST SWAP2 POP POP SWAP3 SWAP2 POP POP JUMP JUMPDEST PUSH2 0x2D5 DUP2 PUSH2 0x1EB JUMP JUMPDEST DUP3 MSTORE POP POP JUMP JUMPDEST PUSH1 0x0 PUSH1 0x20 DUP3 ADD SWAP1 POP PUSH2 0x2F0 PUSH1 0x0 DUP4 ADD DUP5 PUSH2 0x2CC JUMP JUMPDEST SWAP3 SWAP2 POP POP JUMP JUMPDEST PUSH32 0x4E487B7100000000000000000000000000000000000000000000000000000000 PUSH1 0x0 MSTORE PUSH1 0x11 PUSH1 0x4 MSTORE PUSH1 0x24 PUSH1 0x0 REVERT JUMPDEST PUSH1 0x0 PUSH2 0x330 DUP3 PUSH2 0x1EB JUMP JUMPDEST SWAP2 POP PUSH2 0x33B DUP4 PUSH2 0x1EB JUMP JUMPDEST SWAP3 POP DUP3 DUP3 LT ISZERO PUSH2 0x34E JUMPI PUSH2 0x34D PUSH2 0x2F6 JUMP JUMPDEST JUMPDEST DUP3 DUP3 SUB SWAP1 POP SWAP3 SWAP2 POP POP JUMP JUMPDEST PUSH1 0x0 PUSH2 0x364 DUP3 PUSH2 0x1EB JUMP JUMPDEST SWAP2 POP PUSH2 0x36F DUP4 PUSH2 0x1EB JUMP JUMPDEST SWAP3 POP DUP3 PUSH32 0xFFFFFFFFFFFFFFFFFFFFFFFFFFFFFFFFFFFFFFFFFFFFFFFFFFFFFFFFFFFFFFFF SUB DUP3 GT ISZERO PUSH2 0x3A4 JUMPI PUSH2 0x3A3 PUSH2 0x2F6 JUMP JUMPDEST JUMPDEST DUP3 DUP3 ADD SWAP1 POP SWAP3 SWAP2 POP POP JUMP JUMPDEST PUSH2 0x3B8 DUP2 PUSH2 0x261 JUMP JUMPDEST DUP3 MSTORE POP POP JUMP JUMPDEST PUSH1 0x0 DUP2 SWAP1 POP SWAP2 SWAP1 POP JUMP JUMPDEST PUSH1 0x0 PUSH2 0x3E3 PUSH2 0x3DE PUSH2 0x3D9 DUP5 PUSH2 0x18D JUMP JUMPDEST PUSH2 0x3BE JUMP JUMPDEST PUSH2 0x18D JUMP JUMPDEST SWAP1 POP SWAP2 SWAP1 POP JUMP JUMPDEST PUSH1 0x0 PUSH2 0x3F5 DUP3 PUSH2 0x3C8 JUMP JUMPDEST SWAP1 POP SWAP2 SWAP1 POP JUMP JUMPDEST PUSH1 0x0 PUSH2 0x407 DUP3 PUSH2 0x3EA JUMP JUMPDEST SWAP1 POP SWAP2 SWAP1 POP JUMP JUMPDEST PUSH2 0x417 DUP2 PUSH2 0x3FC JUMP JUMPDEST DUP3 MSTORE POP POP JUMP JUMPDEST PUSH1 0x0 PUSH1 0x60 DUP3 ADD SWAP1 POP PUSH2 0x432 PUSH1 0x0 DUP4 ADD DUP7 PUSH2 0x3AF JUMP JUMPDEST PUSH2 0x43F PUSH1 0x20 DUP4 ADD DUP6 PUSH2 0x40E JUMP JUMPDEST PUSH2 0x44C PUSH1 0x40 DUP4 ADD DUP5 PUSH2 0x2CC JUMP JUMPDEST SWAP5 SWAP4 POP POP POP POP JUMP INVALID LOG2 PUSH5 0x6970667358 0x22 SLT KECCAK256 PUSH6 0x937B5AA2A407 0xD5 DUP8 DUP14 REVERT SWAP4 DUP6 0xC CALLVALUE PUSH15 0xF65098C36CF38260A5F7BA58FDEA7E 0xB3 PUSH5 0x736F6C6343 STOP ADDMOD 0xD STOP CALLER "
				},
				"gasEstimates": {
					"creation": {
						"codeDepositCost": "232400",
						"executionCost": "22478",
						"totalCost": "254878"
					},
					"external": {
						"sendToken(address,uint256)": "infinite",
						"tokenBalance(address)": "2814"
					}
				},
				"methodIdentifiers": {
					"sendToken(address,uint256)": "412664ae",
					"tokenBalance(address)": "eedc966a"
				}
			},
			"storageLayout": {
				"storage": [
					{
						"astId": 5,
						"contract": "contracts/25_eventExample.sol:eventExample",
						"label": "tokenBalance",
						"offset": 0,
						"slot": "0",
						"type": "t_mapping(t_address,t_uint256)"
					}
				],
				"types": {
					"t_address": {
						"encoding": "inplace",
						"label": "address",
						"numberOfBytes": "20"
					},
					"t_mapping(t_address,t_uint256)": {
						"encoding": "mapping",
						"key": "t_address",
						"label": "mapping(address => uint256)",
						"numberOfBytes": "32",
						"value": "t_uint256"
					},
					"t_uint256": {
						"encoding": "inplace",
						"label": "uint256",
						"numberOfBytes": "32"
					}
				}
			},
			"userdoc": {
				"kind": "user",
				"methods": {},
				"version": 1
			}
		}
	}
}