{
	"contracts/6.1_BoolExample 2.sol": {
		"myContract": {
			"abi": [
				{
					"inputs": [],
					"name": "myTest",
					"outputs": [
						{
							"internalType": "bool",
							"name": "",
							"type": "bool"
						}
					],
					"stateMutability": "view",
					"type": "function"
				},
				{
					"inputs": [],
					"name": "nguocThuDi",
					"outputs": [],
					"stateMutability": "nonpayable",
					"type": "function"
				},
				{
					"inputs": [
						{
							"internalType": "bool",
							"name": "_myTest",
							"type": "bool"
						}
					],
					"name": "thuDi",
					"outputs": [],
					"stateMutability": "nonpayable",
					"type": "function"
				}
			],
			"devdoc": {
				"kind": "dev",
				"methods": {},
				"version": 1
			},
			"evm": {
				"assembly": "    /* \"contracts/6.1_BoolExample 2.sol\":63:261  contract myContract {\r... */\n  mstore(0x40, 0x80)\n  callvalue\n  dup1\n  iszero\n  tag_1\n  jumpi\n  0x00\n  dup1\n  revert\ntag_1:\n  pop\n  dataSize(sub_0)\n  dup1\n  dataOffset(sub_0)\n  0x00\n  codecopy\n  0x00\n  return\nstop\n\nsub_0: assembly {\n        /* \"contracts/6.1_BoolExample 2.sol\":63:261  contract myContract {\r... */\n      mstore(0x40, 0x80)\n      callvalue\n      dup1\n      iszero\n      tag_1\n      jumpi\n      0x00\n      dup1\n      revert\n    tag_1:\n      pop\n      jumpi(tag_2, lt(calldatasize, 0x04))\n      shr(0xe0, calldataload(0x00))\n      dup1\n      0x17f741b1\n      eq\n      tag_3\n      jumpi\n      dup1\n      0x5ed8b37d\n      eq\n      tag_4\n      jumpi\n      dup1\n      0xb201a455\n      eq\n      tag_5\n      jumpi\n    tag_2:\n      0x00\n      dup1\n      revert\n        /* \"contracts/6.1_BoolExample 2.sol\":115:187  function thuDi (bool _myTest) public {\r... */\n    tag_3:\n      tag_6\n      0x04\n      dup1\n      calldatasize\n      sub\n      dup2\n      add\n      swap1\n      tag_7\n      swap2\n      swap1\n      tag_8\n      jump\t// in\n    tag_7:\n      tag_9\n      jump\t// in\n    tag_6:\n      stop\n        /* \"contracts/6.1_BoolExample 2.sol\":90:108  bool public myTest */\n    tag_4:\n      tag_10\n      tag_11\n      jump\t// in\n    tag_10:\n      mload(0x40)\n      tag_12\n      swap2\n      swap1\n      tag_13\n      jump\t// in\n    tag_12:\n      mload(0x40)\n      dup1\n      swap2\n      sub\n      swap1\n      return\n        /* \"contracts/6.1_BoolExample 2.sol\":195:258  function nguocThuDi() public {\r... */\n    tag_5:\n      tag_14\n      tag_15\n      jump\t// in\n    tag_14:\n      stop\n        /* \"contracts/6.1_BoolExample 2.sol\":115:187  function thuDi (bool _myTest) public {\r... */\n    tag_9:\n        /* \"contracts/6.1_BoolExample 2.sol\":172:179  _myTest */\n      dup1\n        /* \"contracts/6.1_BoolExample 2.sol\":163:169  myTest */\n      0x00\n      dup1\n        /* \"contracts/6.1_BoolExample 2.sol\":163:179  myTest = _myTest */\n      0x0100\n      exp\n      dup2\n      sload\n      dup2\n      0xff\n      mul\n      not\n      and\n      swap1\n      dup4\n      iszero\n      iszero\n      mul\n      or\n      swap1\n      sstore\n      pop\n        /* \"contracts/6.1_BoolExample 2.sol\":115:187  function thuDi (bool _myTest) public {\r... */\n      pop\n      jump\t// out\n        /* \"contracts/6.1_BoolExample 2.sol\":90:108  bool public myTest */\n    tag_11:\n      0x00\n      dup1\n      sload\n      swap1\n      0x0100\n      exp\n      swap1\n      div\n      0xff\n      and\n      dup2\n      jump\t// out\n        /* \"contracts/6.1_BoolExample 2.sol\":195:258  function nguocThuDi() public {\r... */\n    tag_15:\n        /* \"contracts/6.1_BoolExample 2.sol\":244:250  myTest */\n      0x00\n      dup1\n      sload\n      swap1\n      0x0100\n      exp\n      swap1\n      div\n      0xff\n      and\n        /* \"contracts/6.1_BoolExample 2.sol\":243:250  !myTest */\n      iszero\n        /* \"contracts/6.1_BoolExample 2.sol\":235:241  myTest */\n      0x00\n      dup1\n        /* \"contracts/6.1_BoolExample 2.sol\":235:250  myTest =!myTest */\n      0x0100\n      exp\n      dup2\n      sload\n      dup2\n      0xff\n      mul\n      not\n      and\n      swap1\n      dup4\n      iszero\n      iszero\n      mul\n      or\n      swap1\n      sstore\n      pop\n        /* \"contracts/6.1_BoolExample 2.sol\":195:258  function nguocThuDi() public {\r... */\n      jump\t// out\n        /* \"#utility.yul\":7:140   */\n    tag_19:\n      0x00\n        /* \"#utility.yul\":88:94   */\n      dup2\n        /* \"#utility.yul\":75:95   */\n      calldataload\n        /* \"#utility.yul\":66:95   */\n      swap1\n      pop\n        /* \"#utility.yul\":104:134   */\n      tag_21\n        /* \"#utility.yul\":128:133   */\n      dup2\n        /* \"#utility.yul\":104:134   */\n      tag_22\n      jump\t// in\n    tag_21:\n        /* \"#utility.yul\":56:140   */\n      swap3\n      swap2\n      pop\n      pop\n      jump\t// out\n        /* \"#utility.yul\":146:402   */\n    tag_8:\n      0x00\n        /* \"#utility.yul\":251:253   */\n      0x20\n        /* \"#utility.yul\":239:248   */\n      dup3\n        /* \"#utility.yul\":230:237   */\n      dup5\n        /* \"#utility.yul\":226:249   */\n      sub\n        /* \"#utility.yul\":222:254   */\n      slt\n        /* \"#utility.yul\":219:221   */\n      iszero\n      tag_24\n      jumpi\n        /* \"#utility.yul\":267:268   */\n      0x00\n        /* \"#utility.yul\":264:265   */\n      dup1\n        /* \"#utility.yul\":257:269   */\n      revert\n        /* \"#utility.yul\":219:221   */\n    tag_24:\n        /* \"#utility.yul\":310:311   */\n      0x00\n        /* \"#utility.yul\":335:385   */\n      tag_25\n        /* \"#utility.yul\":377:384   */\n      dup5\n        /* \"#utility.yul\":368:374   */\n      dup3\n        /* \"#utility.yul\":357:366   */\n      dup6\n        /* \"#utility.yul\":353:375   */\n      add\n        /* \"#utility.yul\":335:385   */\n      tag_19\n      jump\t// in\n    tag_25:\n        /* \"#utility.yul\":325:385   */\n      swap2\n      pop\n        /* \"#utility.yul\":281:395   */\n      pop\n        /* \"#utility.yul\":209:402   */\n      swap3\n      swap2\n      pop\n      pop\n      jump\t// out\n        /* \"#utility.yul\":408:517   */\n    tag_26:\n        /* \"#utility.yul\":489:510   */\n      tag_28\n        /* \"#utility.yul\":504:509   */\n      dup2\n        /* \"#utility.yul\":489:510   */\n      tag_29\n      jump\t// in\n    tag_28:\n        /* \"#utility.yul\":484:487   */\n      dup3\n        /* \"#utility.yul\":477:511   */\n      mstore\n        /* \"#utility.yul\":467:517   */\n      pop\n      pop\n      jump\t// out\n        /* \"#utility.yul\":523:733   */\n    tag_13:\n      0x00\n        /* \"#utility.yul\":648:650   */\n      0x20\n        /* \"#utility.yul\":637:646   */\n      dup3\n        /* \"#utility.yul\":633:651   */\n      add\n        /* \"#utility.yul\":625:651   */\n      swap1\n      pop\n        /* \"#utility.yul\":661:726   */\n      tag_31\n        /* \"#utility.yul\":723:724   */\n      0x00\n        /* \"#utility.yul\":712:721   */\n      dup4\n        /* \"#utility.yul\":708:725   */\n      add\n        /* \"#utility.yul\":699:705   */\n      dup5\n        /* \"#utility.yul\":661:726   */\n      tag_26\n      jump\t// in\n    tag_31:\n        /* \"#utility.yul\":615:733   */\n      swap3\n      swap2\n      pop\n      pop\n      jump\t// out\n        /* \"#utility.yul\":739:829   */\n    tag_29:\n      0x00\n        /* \"#utility.yul\":816:821   */\n      dup2\n        /* \"#utility.yul\":809:822   */\n      iszero\n        /* \"#utility.yul\":802:823   */\n      iszero\n        /* \"#utility.yul\":791:823   */\n      swap1\n      pop\n        /* \"#utility.yul\":781:829   */\n      swap2\n      swap1\n      pop\n      jump\t// out\n        /* \"#utility.yul\":835:951   */\n    tag_22:\n        /* \"#utility.yul\":905:926   */\n      tag_34\n        /* \"#utility.yul\":920:925   */\n      dup2\n        /* \"#utility.yul\":905:926   */\n      tag_29\n      jump\t// in\n    tag_34:\n        /* \"#utility.yul\":898:903   */\n      dup2\n        /* \"#utility.yul\":895:927   */\n      eq\n        /* \"#utility.yul\":885:887   */\n      tag_35\n      jumpi\n        /* \"#utility.yul\":941:942   */\n      0x00\n        /* \"#utility.yul\":938:939   */\n      dup1\n        /* \"#utility.yul\":931:943   */\n      revert\n        /* \"#utility.yul\":885:887   */\n    tag_35:\n        /* \"#utility.yul\":875:951   */\n      pop\n      jump\t// out\n\n    auxdata: 0xa26469706673582212207e1ce645586c7ac1c5b05886e7d285641c0f87cf76f3b6b35e1ad601ac23624f64736f6c63430008010033\n}\n",
				"bytecode": {
					"linkReferences": {},
					"object": "608060405234801561001057600080fd5b506101a1806100206000396000f3fe608060405234801561001057600080fd5b50600436106100415760003560e01c806317f741b1146100465780635ed8b37d14610062578063b201a45514610080575b600080fd5b610060600480360381019061005b91906100f5565b61008a565b005b61006a6100a6565b604051610077919061012d565b60405180910390f35b6100886100b7565b005b806000806101000a81548160ff02191690831515021790555050565b60008054906101000a900460ff1681565b60008054906101000a900460ff16156000806101000a81548160ff021916908315150217905550565b6000813590506100ef81610154565b92915050565b60006020828403121561010757600080fd5b6000610115848285016100e0565b91505092915050565b61012781610148565b82525050565b6000602082019050610142600083018461011e565b92915050565b60008115159050919050565b61015d81610148565b811461016857600080fd5b5056fea26469706673582212207e1ce645586c7ac1c5b05886e7d285641c0f87cf76f3b6b35e1ad601ac23624f64736f6c63430008010033",
					"opcodes": "PUSH1 0x80 PUSH1 0x40 MSTORE CALLVALUE DUP1 ISZERO PUSH2 0x10 JUMPI PUSH1 0x0 DUP1 REVERT JUMPDEST POP PUSH2 0x1A1 DUP1 PUSH2 0x20 PUSH1 0x0 CODECOPY PUSH1 0x0 RETURN INVALID PUSH1 0x80 PUSH1 0x40 MSTORE CALLVALUE DUP1 ISZERO PUSH2 0x10 JUMPI PUSH1 0x0 DUP1 REVERT JUMPDEST POP PUSH1 0x4 CALLDATASIZE LT PUSH2 0x41 JUMPI PUSH1 0x0 CALLDATALOAD PUSH1 0xE0 SHR DUP1 PUSH4 0x17F741B1 EQ PUSH2 0x46 JUMPI DUP1 PUSH4 0x5ED8B37D EQ PUSH2 0x62 JUMPI DUP1 PUSH4 0xB201A455 EQ PUSH2 0x80 JUMPI JUMPDEST PUSH1 0x0 DUP1 REVERT JUMPDEST PUSH2 0x60 PUSH1 0x4 DUP1 CALLDATASIZE SUB DUP2 ADD SWAP1 PUSH2 0x5B SWAP2 SWAP1 PUSH2 0xF5 JUMP JUMPDEST PUSH2 0x8A JUMP JUMPDEST STOP JUMPDEST PUSH2 0x6A PUSH2 0xA6 JUMP JUMPDEST PUSH1 0x40 MLOAD PUSH2 0x77 SWAP2 SWAP1 PUSH2 0x12D JUMP JUMPDEST PUSH1 0x40 MLOAD DUP1 SWAP2 SUB SWAP1 RETURN JUMPDEST PUSH2 0x88 PUSH2 0xB7 JUMP JUMPDEST STOP JUMPDEST DUP1 PUSH1 0x0 DUP1 PUSH2 0x100 EXP DUP2 SLOAD DUP2 PUSH1 0xFF MUL NOT AND SWAP1 DUP4 ISZERO ISZERO MUL OR SWAP1 SSTORE POP POP JUMP JUMPDEST PUSH1 0x0 DUP1 SLOAD SWAP1 PUSH2 0x100 EXP SWAP1 DIV PUSH1 0xFF AND DUP2 JUMP JUMPDEST PUSH1 0x0 DUP1 SLOAD SWAP1 PUSH2 0x100 EXP SWAP1 DIV PUSH1 0xFF AND ISZERO PUSH1 0x0 DUP1 PUSH2 0x100 EXP DUP2 SLOAD DUP2 PUSH1 0xFF MUL NOT AND SWAP1 DUP4 ISZERO ISZERO MUL OR SWAP1 SSTORE POP JUMP JUMPDEST PUSH1 0x0 DUP2 CALLDATALOAD SWAP1 POP PUSH2 0xEF DUP2 PUSH2 0x154 JUMP JUMPDEST SWAP3 SWAP2 POP POP JUMP JUMPDEST PUSH1 0x0 PUSH1 0x20 DUP3 DUP5 SUB SLT ISZERO PUSH2 0x107 JUMPI PUSH1 0x0 DUP1 REVERT JUMPDEST PUSH1 0x0 PUSH2 0x115 DUP5 DUP3 DUP6 ADD PUSH2 0xE0 JUMP JUMPDEST SWAP2 POP POP SWAP3 SWAP2 POP POP JUMP JUMPDEST PUSH2 0x127 DUP2 PUSH2 0x148 JUMP JUMPDEST DUP3 MSTORE POP POP JUMP JUMPDEST PUSH1 0x0 PUSH1 0x20 DUP3 ADD SWAP1 POP PUSH2 0x142 PUSH1 0x0 DUP4 ADD DUP5 PUSH2 0x11E JUMP JUMPDEST SWAP3 SWAP2 POP POP JUMP JUMPDEST PUSH1 0x0 DUP2 ISZERO ISZERO SWAP1 POP SWAP2 SWAP1 POP JUMP JUMPDEST PUSH2 0x15D DUP2 PUSH2 0x148 JUMP JUMPDEST DUP2 EQ PUSH2 0x168 JUMPI PUSH1 0x0 DUP1 REVERT JUMPDEST POP JUMP INVALID LOG2 PUSH5 0x6970667358 0x22 SLT KECCAK256 PUSH31 0x1CE645586C7AC1C5B05886E7D285641C0F87CF76F3B6B35E1AD601AC23624F PUSH5 0x736F6C6343 STOP ADDMOD ADD STOP CALLER "
				},
				"gasEstimates": {
					"creation": {
						"codeDepositCost": "83400",
						"executionCost": "135",
						"totalCost": "83535"
					},
					"external": {
						"myTest()": "1168",
						"nguocThuDi()": "21869",
						"thuDi(bool)": "21257"
					}
				},
				"methodIdentifiers": {
					"myTest()": "5ed8b37d",
					"nguocThuDi()": "b201a455",
					"thuDi(bool)": "17f741b1"
				}
			},
			"storageLayout": {
				"storage": [
					{
						"astId": 3,
						"contract": "contracts/6.1_BoolExample 2.sol:myContract",
						"label": "myTest",
						"offset": 0,
						"slot": "0",
						"type": "t_bool"
					}
				],
				"types": {
					"t_bool": {
						"encoding": "inplace",
						"label": "bool",
						"numberOfBytes": "1"
					}
				}
			},
			"userdoc": {
				"kind": "user",
				"methods": {},
				"version": 1
			}
		}
	}
}